{"abi":[{"inputs":[],"stateMutability":"nonpayable","type":"constructor"},{"inputs":[{"internalType":"address","name":"owner","type":"address"}],"name":"OwnableInvalidOwner","type":"error"},{"inputs":[{"internalType":"address","name":"account","type":"address"}],"name":"OwnableUnauthorizedAccount","type":"error"},{"anonymous":false,"inputs":[{"indexed":false,"internalType":"string","name":"ipfs_hash","type":"string"},{"indexed":false,"internalType":"string","name":"sha256_hash","type":"string"},{"indexed":false,"internalType":"string","name":"creator","type":"string"}],"name":"DocumentCreated","type":"event"},{"anonymous":false,"inputs":[{"indexed":true,"internalType":"address","name":"previousOwner","type":"address"},{"indexed":true,"internalType":"address","name":"newOwner","type":"address"}],"name":"OwnershipTransferred","type":"event"},{"inputs":[{"internalType":"string","name":"_ipfs_hash","type":"string"},{"internalType":"string","name":"_sha256_hash","type":"string"},{"internalType":"string","name":"_creator","type":"string"}],"name":"createDocument","outputs":[],"stateMutability":"nonpayable","type":"function"},{"inputs":[],"name":"documentCount","outputs":[{"internalType":"uint256","name":"","type":"uint256"}],"stateMutability":"view","type":"function"},{"inputs":[{"internalType":"bytes32","name":"","type":"bytes32"}],"name":"documents","outputs":[{"internalType":"string","name":"ipfs_hash","type":"string"},{"internalType":"string","name":"sha256_hash","type":"string"},{"internalType":"string","name":"creator","type":"string"}],"stateMutability":"view","type":"function"},{"inputs":[],"name":"owner","outputs":[{"internalType":"address","name":"","type":"address"}],"stateMutability":"view","type":"function"},{"inputs":[],"name":"renounceOwnership","outputs":[],"stateMutability":"nonpayable","type":"function"},{"inputs":[{"internalType":"address","name":"newOwner","type":"address"}],"name":"transferOwnership","outputs":[],"stateMutability":"nonpayable","type":"function"}],"devdoc":{"errors":{"OwnableInvalidOwner(address)":[{"details":"The owner is not a valid owner account. (eg. `address(0)`)"}],"OwnableUnauthorizedAccount(address)":[{"details":"The caller account is not authorized to perform an operation."}]},"kind":"dev","methods":{"owner()":{"details":"Returns the address of the current owner."},"renounceOwnership()":{"details":"Leaves the contract without owner. It will not be possible to call `onlyOwner` functions. Can only be called by the current owner. NOTE: Renouncing ownership will leave the contract without an owner, thereby disabling any functionality that is only available to the owner."},"transferOwnership(address)":{"details":"Transfers ownership of the contract to a new account (`newOwner`). Can only be called by the current owner."}},"version":1},"evm":{"assembly":"    /* \"DocumentFactory.sol\":82:824  contract DocumentFactory is Ownable {... */\n  mstore(0x40, 0x80)\n    /* \"DocumentFactory.sol\":152:153  0 */\n  0x00\n    /* \"DocumentFactory.sol\":124:153  uint public documentCount = 0 */\n  0x01\n  sstore\n    /* \"DocumentFactory.sol\":267:303  constructor() Ownable(msg.sender) {} */\n  callvalue\n  dup1\n  iszero\n  tag_1\n  jumpi\n  0x00\n  dup1\n  revert\ntag_1:\n  pop\n    /* \"DocumentFactory.sol\":289:299  msg.sender */\n  caller\n    /* \"Ownable.sol\":1247:1279  _transferOwnership(initialOwner) */\n  tag_5\n    /* \"Ownable.sol\":1266:1278  initialOwner */\n  dup2\n    /* \"Ownable.sol\":1247:1265  _transferOwnership */\n  shl(0x20, tag_6)\n    /* \"Ownable.sol\":1247:1279  _transferOwnership(initialOwner) */\n  0x20\n  shr\n  jump\t// in\ntag_5:\n    /* \"Ownable.sol\":1203:1286  constructor(address initialOwner) {... */\n  pop\n    /* \"DocumentFactory.sol\":82:824  contract DocumentFactory is Ownable {... */\n  jump(tag_8)\n    /* \"Ownable.sol\":2786:2973  function _transferOwnership(address newOwner) internal virtual {... */\ntag_6:\n    /* \"Ownable.sol\":2859:2875  address oldOwner */\n  0x00\n    /* \"Ownable.sol\":2878:2884  _owner */\n  dup1\n  0x00\n  swap1\n  sload\n  swap1\n  0x0100\n  exp\n  swap1\n  div\n  0xffffffffffffffffffffffffffffffffffffffff\n  and\n    /* \"Ownable.sol\":2859:2884  address oldOwner = _owner */\n  swap1\n  pop\n    /* \"Ownable.sol\":2903:2911  newOwner */\n  dup2\n    /* \"Ownable.sol\":2894:2900  _owner */\n  0x00\n  dup1\n    /* \"Ownable.sol\":2894:2911  _owner = newOwner */\n  0x0100\n  exp\n  dup2\n  sload\n  dup2\n  0xffffffffffffffffffffffffffffffffffffffff\n  mul\n  not\n  and\n  swap1\n  dup4\n  0xffffffffffffffffffffffffffffffffffffffff\n  and\n  mul\n  or\n  swap1\n  sstore\n  pop\n    /* \"Ownable.sol\":2957:2965  newOwner */\n  dup2\n    /* \"Ownable.sol\":2926:2966  OwnershipTransferred(oldOwner, newOwner) */\n  0xffffffffffffffffffffffffffffffffffffffff\n  and\n    /* \"Ownable.sol\":2947:2955  oldOwner */\n  dup2\n    /* \"Ownable.sol\":2926:2966  OwnershipTransferred(oldOwner, newOwner) */\n  0xffffffffffffffffffffffffffffffffffffffff\n  and\n  0x8be0079c531659141344cd1fd0a4f28419497f9722a3daafe3b4186f6b6457e0\n  mload(0x40)\n  mload(0x40)\n  dup1\n  swap2\n  sub\n  swap1\n  log3\n    /* \"Ownable.sol\":2849:2973  {... */\n  pop\n    /* \"Ownable.sol\":2786:2973  function _transferOwnership(address newOwner) internal virtual {... */\n  pop\n  jump\t// out\n    /* \"DocumentFactory.sol\":82:824  contract DocumentFactory is Ownable {... */\ntag_8:\n  dataSize(sub_0)\n  dup1\n  dataOffset(sub_0)\n  0x00\n  codecopy\n  0x00\n  return\nstop\n\nsub_0: assembly {\n        /* \"DocumentFactory.sol\":82:824  contract DocumentFactory is Ownable {... */\n      mstore(0x40, 0x80)\n      callvalue\n      dup1\n      iszero\n      tag_1\n      jumpi\n      0x00\n      dup1\n      revert\n    tag_1:\n      pop\n      jumpi(tag_2, lt(calldatasize, 0x04))\n      shr(0xe0, calldataload(0x00))\n      dup1\n      0x2b2805db\n      eq\n      tag_3\n      jumpi\n      dup1\n      0x5ec43825\n      eq\n      tag_4\n      jumpi\n      dup1\n      0x715018a6\n      eq\n      tag_5\n      jumpi\n      dup1\n      0x8da5cb5b\n      eq\n      tag_6\n      jumpi\n      dup1\n      0xa5b16b2e\n      eq\n      tag_7\n      jumpi\n      dup1\n      0xf2fde38b\n      eq\n      tag_8\n      jumpi\n    tag_2:\n      0x00\n      dup1\n      revert\n        /* \"DocumentFactory.sol\":309:354  mapping(bytes32 => Document) public documents */\n    tag_3:\n      tag_9\n      0x04\n      dup1\n      calldatasize\n      sub\n      dup2\n      add\n      swap1\n      tag_10\n      swap2\n      swap1\n      tag_11\n      jump\t// in\n    tag_10:\n      tag_12\n      jump\t// in\n    tag_9:\n      mload(0x40)\n      tag_13\n      swap4\n      swap3\n      swap2\n      swap1\n      tag_14\n      jump\t// in\n    tag_13:\n      mload(0x40)\n      dup1\n      swap2\n      sub\n      swap1\n      return\n        /* \"DocumentFactory.sol\":444:821  function createDocument(string memory _ipfs_hash, string memory _sha256_hash, string memory _creator) public onlyOwner {... */\n    tag_4:\n      tag_15\n      0x04\n      dup1\n      calldatasize\n      sub\n      dup2\n      add\n      swap1\n      tag_16\n      swap2\n      swap1\n      tag_17\n      jump\t// in\n    tag_16:\n      tag_18\n      jump\t// in\n    tag_15:\n      stop\n        /* \"Ownable.sol\":2167:2268  function renounceOwnership() public virtual onlyOwner {... */\n    tag_5:\n      tag_19\n      tag_20\n      jump\t// in\n    tag_19:\n      stop\n        /* \"Ownable.sol\":1512:1597  function owner() public view virtual returns (address) {... */\n    tag_6:\n      tag_21\n      tag_22\n      jump\t// in\n    tag_21:\n      mload(0x40)\n      tag_23\n      swap2\n      swap1\n      tag_24\n      jump\t// in\n    tag_23:\n      mload(0x40)\n      dup1\n      swap2\n      sub\n      swap1\n      return\n        /* \"DocumentFactory.sol\":124:153  uint public documentCount = 0 */\n    tag_7:\n      tag_25\n      tag_26\n      jump\t// in\n    tag_25:\n      mload(0x40)\n      tag_27\n      swap2\n      swap1\n      tag_28\n      jump\t// in\n    tag_27:\n      mload(0x40)\n      dup1\n      swap2\n      sub\n      swap1\n      return\n        /* \"Ownable.sol\":2417:2632  function transferOwnership(address newOwner) public virtual onlyOwner {... */\n    tag_8:\n      tag_29\n      0x04\n      dup1\n      calldatasize\n      sub\n      dup2\n      add\n      swap1\n      tag_30\n      swap2\n      swap1\n      tag_31\n      jump\t// in\n    tag_30:\n      tag_32\n      jump\t// in\n    tag_29:\n      stop\n        /* \"DocumentFactory.sol\":309:354  mapping(bytes32 => Document) public documents */\n    tag_12:\n      mstore(0x20, 0x02)\n      dup1\n      0x00\n      mstore\n      keccak256(0x00, 0x40)\n      0x00\n      swap2\n      pop\n      swap1\n      pop\n      dup1\n      0x00\n      add\n      dup1\n      sload\n      tag_33\n      swap1\n      tag_34\n      jump\t// in\n    tag_33:\n      dup1\n      0x1f\n      add\n      0x20\n      dup1\n      swap2\n      div\n      mul\n      0x20\n      add\n      mload(0x40)\n      swap1\n      dup2\n      add\n      0x40\n      mstore\n      dup1\n      swap3\n      swap2\n      swap1\n      dup2\n      dup2\n      mstore\n      0x20\n      add\n      dup3\n      dup1\n      sload\n      tag_35\n      swap1\n      tag_34\n      jump\t// in\n    tag_35:\n      dup1\n      iszero\n      tag_36\n      jumpi\n      dup1\n      0x1f\n      lt\n      tag_37\n      jumpi\n      0x0100\n      dup1\n      dup4\n      sload\n      div\n      mul\n      dup4\n      mstore\n      swap2\n      0x20\n      add\n      swap2\n      jump(tag_36)\n    tag_37:\n      dup3\n      add\n      swap2\n      swap1\n      0x00\n      mstore\n      keccak256(0x00, 0x20)\n      swap1\n    tag_38:\n      dup2\n      sload\n      dup2\n      mstore\n      swap1\n      0x01\n      add\n      swap1\n      0x20\n      add\n      dup1\n      dup4\n      gt\n      tag_38\n      jumpi\n      dup3\n      swap1\n      sub\n      0x1f\n      and\n      dup3\n      add\n      swap2\n    tag_36:\n      pop\n      pop\n      pop\n      pop\n      pop\n      swap1\n      dup1\n      0x01\n      add\n      dup1\n      sload\n      tag_39\n      swap1\n      tag_34\n      jump\t// in\n    tag_39:\n      dup1\n      0x1f\n      add\n      0x20\n      dup1\n      swap2\n      div\n      mul\n      0x20\n      add\n      mload(0x40)\n      swap1\n      dup2\n      add\n      0x40\n      mstore\n      dup1\n      swap3\n      swap2\n      swap1\n      dup2\n      dup2\n      mstore\n      0x20\n      add\n      dup3\n      dup1\n      sload\n      tag_40\n      swap1\n      tag_34\n      jump\t// in\n    tag_40:\n      dup1\n      iszero\n      tag_41\n      jumpi\n      dup1\n      0x1f\n      lt\n      tag_42\n      jumpi\n      0x0100\n      dup1\n      dup4\n      sload\n      div\n      mul\n      dup4\n      mstore\n      swap2\n      0x20\n      add\n      swap2\n      jump(tag_41)\n    tag_42:\n      dup3\n      add\n      swap2\n      swap1\n      0x00\n      mstore\n      keccak256(0x00, 0x20)\n      swap1\n    tag_43:\n      dup2\n      sload\n      dup2\n      mstore\n      swap1\n      0x01\n      add\n      swap1\n      0x20\n      add\n      dup1\n      dup4\n      gt\n      tag_43\n      jumpi\n      dup3\n      swap1\n      sub\n      0x1f\n      and\n      dup3\n      add\n      swap2\n    tag_41:\n      pop\n      pop\n      pop\n      pop\n      pop\n      swap1\n      dup1\n      0x02\n      add\n      dup1\n      sload\n      tag_44\n      swap1\n      tag_34\n      jump\t// in\n    tag_44:\n      dup1\n      0x1f\n      add\n      0x20\n      dup1\n      swap2\n      div\n      mul\n      0x20\n      add\n      mload(0x40)\n      swap1\n      dup2\n      add\n      0x40\n      mstore\n      dup1\n      swap3\n      swap2\n      swap1\n      dup2\n      dup2\n      mstore\n      0x20\n      add\n      dup3\n      dup1\n      sload\n      tag_45\n      swap1\n      tag_34\n      jump\t// in\n    tag_45:\n      dup1\n      iszero\n      tag_46\n      jumpi\n      dup1\n      0x1f\n      lt\n      tag_47\n      jumpi\n      0x0100\n      dup1\n      dup4\n      sload\n      div\n      mul\n      dup4\n      mstore\n      swap2\n      0x20\n      add\n      swap2\n      jump(tag_46)\n    tag_47:\n      dup3\n      add\n      swap2\n      swap1\n      0x00\n      mstore\n      keccak256(0x00, 0x20)\n      swap1\n    tag_48:\n      dup2\n      sload\n      dup2\n      mstore\n      swap1\n      0x01\n      add\n      swap1\n      0x20\n      add\n      dup1\n      dup4\n      gt\n      tag_48\n      jumpi\n      dup3\n      swap1\n      sub\n      0x1f\n      and\n      dup3\n      add\n      swap2\n    tag_46:\n      pop\n      pop\n      pop\n      pop\n      pop\n      swap1\n      pop\n      dup4\n      jump\t// out\n        /* \"DocumentFactory.sol\":444:821  function createDocument(string memory _ipfs_hash, string memory _sha256_hash, string memory _creator) public onlyOwner {... */\n    tag_18:\n        /* \"Ownable.sol\":1405:1418  _checkOwner() */\n      tag_50\n        /* \"Ownable.sol\":1405:1416  _checkOwner */\n      tag_51\n        /* \"Ownable.sol\":1405:1418  _checkOwner() */\n      jump\t// in\n    tag_50:\n        /* \"DocumentFactory.sol\":573:585  bytes32 hash */\n      0x00\n        /* \"DocumentFactory.sol\":615:625  _ipfs_hash */\n      dup4\n        /* \"DocumentFactory.sol\":627:639  _sha256_hash */\n      dup4\n        /* \"DocumentFactory.sol\":641:649  _creator */\n      dup4\n        /* \"DocumentFactory.sol\":598:650  abi.encodePacked(_ipfs_hash, _sha256_hash, _creator) */\n      add(0x20, mload(0x40))\n      tag_53\n      swap4\n      swap3\n      swap2\n      swap1\n      tag_54\n      jump\t// in\n    tag_53:\n      mload(0x40)\n      0x20\n      dup2\n      dup4\n      sub\n      sub\n      dup2\n      mstore\n      swap1\n      0x40\n      mstore\n        /* \"DocumentFactory.sol\":588:651  keccak256(abi.encodePacked(_ipfs_hash, _sha256_hash, _creator)) */\n      dup1\n      mload\n      swap1\n      0x20\n      add\n      keccak256\n        /* \"DocumentFactory.sol\":573:651  bytes32 hash = keccak256(abi.encodePacked(_ipfs_hash, _sha256_hash, _creator)) */\n      swap1\n      pop\n        /* \"DocumentFactory.sol\":679:723  Document(_ipfs_hash, _sha256_hash, _creator) */\n      mload(0x40)\n      dup1\n      0x60\n      add\n      0x40\n      mstore\n      dup1\n        /* \"DocumentFactory.sol\":688:698  _ipfs_hash */\n      dup6\n        /* \"DocumentFactory.sol\":679:723  Document(_ipfs_hash, _sha256_hash, _creator) */\n      dup2\n      mstore\n      0x20\n      add\n        /* \"DocumentFactory.sol\":700:712  _sha256_hash */\n      dup5\n        /* \"DocumentFactory.sol\":679:723  Document(_ipfs_hash, _sha256_hash, _creator) */\n      dup2\n      mstore\n      0x20\n      add\n        /* \"DocumentFactory.sol\":714:722  _creator */\n      dup4\n        /* \"DocumentFactory.sol\":679:723  Document(_ipfs_hash, _sha256_hash, _creator) */\n      dup2\n      mstore\n      pop\n        /* \"DocumentFactory.sol\":661:670  documents */\n      0x02\n        /* \"DocumentFactory.sol\":661:676  documents[hash] */\n      0x00\n        /* \"DocumentFactory.sol\":671:675  hash */\n      dup4\n        /* \"DocumentFactory.sol\":661:676  documents[hash] */\n      dup2\n      mstore\n      0x20\n      add\n      swap1\n      dup2\n      mstore\n      0x20\n      add\n      0x00\n      keccak256\n        /* \"DocumentFactory.sol\":661:723  documents[hash] = Document(_ipfs_hash, _sha256_hash, _creator) */\n      0x00\n      dup3\n      add\n      mload\n      dup2\n      0x00\n      add\n      swap1\n      dup2\n      tag_55\n      swap2\n      swap1\n      tag_56\n      jump\t// in\n    tag_55:\n      pop\n      0x20\n      dup3\n      add\n      mload\n      dup2\n      0x01\n      add\n      swap1\n      dup2\n      tag_57\n      swap2\n      swap1\n      tag_56\n      jump\t// in\n    tag_57:\n      pop\n      0x40\n      dup3\n      add\n      mload\n      dup2\n      0x02\n      add\n      swap1\n      dup2\n      tag_58\n      swap2\n      swap1\n      tag_56\n      jump\t// in\n    tag_58:\n      pop\n      swap1\n      pop\n      pop\n        /* \"DocumentFactory.sol\":733:746  documentCount */\n      0x01\n      0x00\n        /* \"DocumentFactory.sol\":733:748  documentCount++ */\n      dup2\n      sload\n      dup1\n      swap3\n      swap2\n      swap1\n      tag_59\n      swap1\n      tag_60\n      jump\t// in\n    tag_59:\n      swap2\n      swap1\n      pop\n      sstore\n      pop\n        /* \"DocumentFactory.sol\":763:814  DocumentCreated(_ipfs_hash, _sha256_hash, _creator) */\n      0x49d7e5f3a72ba15517e05917a8ca0e41c3eb07ffd03a643280753c50f1b6965d\n        /* \"DocumentFactory.sol\":779:789  _ipfs_hash */\n      dup5\n        /* \"DocumentFactory.sol\":791:803  _sha256_hash */\n      dup5\n        /* \"DocumentFactory.sol\":805:813  _creator */\n      dup5\n        /* \"DocumentFactory.sol\":763:814  DocumentCreated(_ipfs_hash, _sha256_hash, _creator) */\n      mload(0x40)\n      tag_61\n      swap4\n      swap3\n      swap2\n      swap1\n      tag_14\n      jump\t// in\n    tag_61:\n      mload(0x40)\n      dup1\n      swap2\n      sub\n      swap1\n      log1\n        /* \"DocumentFactory.sol\":563:821  {... */\n      pop\n        /* \"DocumentFactory.sol\":444:821  function createDocument(string memory _ipfs_hash, string memory _sha256_hash, string memory _creator) public onlyOwner {... */\n      pop\n      pop\n      pop\n      jump\t// out\n        /* \"Ownable.sol\":2167:2268  function renounceOwnership() public virtual onlyOwner {... */\n    tag_20:\n        /* \"Ownable.sol\":1405:1418  _checkOwner() */\n      tag_63\n        /* \"Ownable.sol\":1405:1416  _checkOwner */\n      tag_51\n        /* \"Ownable.sol\":1405:1418  _checkOwner() */\n      jump\t// in\n    tag_63:\n        /* \"Ownable.sol\":2231:2261  _transferOwnership(address(0)) */\n      tag_65\n        /* \"Ownable.sol\":2258:2259  0 */\n      0x00\n        /* \"Ownable.sol\":2231:2249  _transferOwnership */\n      tag_66\n        /* \"Ownable.sol\":2231:2261  _transferOwnership(address(0)) */\n      jump\t// in\n    tag_65:\n        /* \"Ownable.sol\":2167:2268  function renounceOwnership() public virtual onlyOwner {... */\n      jump\t// out\n        /* \"Ownable.sol\":1512:1597  function owner() public view virtual returns (address) {... */\n    tag_22:\n        /* \"Ownable.sol\":1558:1565  address */\n      0x00\n        /* \"Ownable.sol\":1584:1590  _owner */\n      dup1\n      0x00\n      swap1\n      sload\n      swap1\n      0x0100\n      exp\n      swap1\n      div\n      0xffffffffffffffffffffffffffffffffffffffff\n      and\n        /* \"Ownable.sol\":1577:1590  return _owner */\n      swap1\n      pop\n        /* \"Ownable.sol\":1512:1597  function owner() public view virtual returns (address) {... */\n      swap1\n      jump\t// out\n        /* \"DocumentFactory.sol\":124:153  uint public documentCount = 0 */\n    tag_26:\n      sload(0x01)\n      dup2\n      jump\t// out\n        /* \"Ownable.sol\":2417:2632  function transferOwnership(address newOwner) public virtual onlyOwner {... */\n    tag_32:\n        /* \"Ownable.sol\":1405:1418  _checkOwner() */\n      tag_69\n        /* \"Ownable.sol\":1405:1416  _checkOwner */\n      tag_51\n        /* \"Ownable.sol\":1405:1418  _checkOwner() */\n      jump\t// in\n    tag_69:\n        /* \"Ownable.sol\":2521:2522  0 */\n      0x00\n        /* \"Ownable.sol\":2501:2523  newOwner == address(0) */\n      0xffffffffffffffffffffffffffffffffffffffff\n      and\n        /* \"Ownable.sol\":2501:2509  newOwner */\n      dup2\n        /* \"Ownable.sol\":2501:2523  newOwner == address(0) */\n      0xffffffffffffffffffffffffffffffffffffffff\n      and\n      sub\n        /* \"Ownable.sol\":2497:2588  if (newOwner == address(0)) {... */\n      tag_71\n      jumpi\n        /* \"Ownable.sol\":2574:2575  0 */\n      0x00\n        /* \"Ownable.sol\":2546:2577  OwnableInvalidOwner(address(0)) */\n      mload(0x40)\n      0x1e4fbdf700000000000000000000000000000000000000000000000000000000\n      dup2\n      mstore\n      0x04\n      add\n      tag_72\n      swap2\n      swap1\n      tag_24\n      jump\t// in\n    tag_72:\n      mload(0x40)\n      dup1\n      swap2\n      sub\n      swap1\n      revert\n        /* \"Ownable.sol\":2497:2588  if (newOwner == address(0)) {... */\n    tag_71:\n        /* \"Ownable.sol\":2597:2625  _transferOwnership(newOwner) */\n      tag_73\n        /* \"Ownable.sol\":2616:2624  newOwner */\n      dup2\n        /* \"Ownable.sol\":2597:2615  _transferOwnership */\n      tag_66\n        /* \"Ownable.sol\":2597:2625  _transferOwnership(newOwner) */\n      jump\t// in\n    tag_73:\n        /* \"Ownable.sol\":2417:2632  function transferOwnership(address newOwner) public virtual onlyOwner {... */\n      pop\n      jump\t// out\n        /* \"Ownable.sol\":1670:1832  function _checkOwner() internal view virtual {... */\n    tag_51:\n        /* \"Ownable.sol\":1740:1752  _msgSender() */\n      tag_75\n        /* \"Ownable.sol\":1740:1750  _msgSender */\n      tag_76\n        /* \"Ownable.sol\":1740:1752  _msgSender() */\n      jump\t// in\n    tag_75:\n        /* \"Ownable.sol\":1729:1752  owner() != _msgSender() */\n      0xffffffffffffffffffffffffffffffffffffffff\n      and\n        /* \"Ownable.sol\":1729:1736  owner() */\n      tag_77\n        /* \"Ownable.sol\":1729:1734  owner */\n      tag_22\n        /* \"Ownable.sol\":1729:1736  owner() */\n      jump\t// in\n    tag_77:\n        /* \"Ownable.sol\":1729:1752  owner() != _msgSender() */\n      0xffffffffffffffffffffffffffffffffffffffff\n      and\n      eq\n        /* \"Ownable.sol\":1725:1826  if (owner() != _msgSender()) {... */\n      tag_78\n      jumpi\n        /* \"Ownable.sol\":1802:1814  _msgSender() */\n      tag_79\n        /* \"Ownable.sol\":1802:1812  _msgSender */\n      tag_76\n        /* \"Ownable.sol\":1802:1814  _msgSender() */\n      jump\t// in\n    tag_79:\n        /* \"Ownable.sol\":1775:1815  OwnableUnauthorizedAccount(_msgSender()) */\n      mload(0x40)\n      0x118cdaa700000000000000000000000000000000000000000000000000000000\n      dup2\n      mstore\n      0x04\n      add\n      tag_80\n      swap2\n      swap1\n      tag_24\n      jump\t// in\n    tag_80:\n      mload(0x40)\n      dup1\n      swap2\n      sub\n      swap1\n      revert\n        /* \"Ownable.sol\":1725:1826  if (owner() != _msgSender()) {... */\n    tag_78:\n        /* \"Ownable.sol\":1670:1832  function _checkOwner() internal view virtual {... */\n      jump\t// out\n        /* \"Ownable.sol\":2786:2973  function _transferOwnership(address newOwner) internal virtual {... */\n    tag_66:\n        /* \"Ownable.sol\":2859:2875  address oldOwner */\n      0x00\n        /* \"Ownable.sol\":2878:2884  _owner */\n      dup1\n      0x00\n      swap1\n      sload\n      swap1\n      0x0100\n      exp\n      swap1\n      div\n      0xffffffffffffffffffffffffffffffffffffffff\n      and\n        /* \"Ownable.sol\":2859:2884  address oldOwner = _owner */\n      swap1\n      pop\n        /* \"Ownable.sol\":2903:2911  newOwner */\n      dup2\n        /* \"Ownable.sol\":2894:2900  _owner */\n      0x00\n      dup1\n        /* \"Ownable.sol\":2894:2911  _owner = newOwner */\n      0x0100\n      exp\n      dup2\n      sload\n      dup2\n      0xffffffffffffffffffffffffffffffffffffffff\n      mul\n      not\n      and\n      swap1\n      dup4\n      0xffffffffffffffffffffffffffffffffffffffff\n      and\n      mul\n      or\n      swap1\n      sstore\n      pop\n        /* \"Ownable.sol\":2957:2965  newOwner */\n      dup2\n        /* \"Ownable.sol\":2926:2966  OwnershipTransferred(oldOwner, newOwner) */\n      0xffffffffffffffffffffffffffffffffffffffff\n      and\n        /* \"Ownable.sol\":2947:2955  oldOwner */\n      dup2\n        /* \"Ownable.sol\":2926:2966  OwnershipTransferred(oldOwner, newOwner) */\n      0xffffffffffffffffffffffffffffffffffffffff\n      and\n      0x8be0079c531659141344cd1fd0a4f28419497f9722a3daafe3b4186f6b6457e0\n      mload(0x40)\n      mload(0x40)\n      dup1\n      swap2\n      sub\n      swap1\n      log3\n        /* \"Ownable.sol\":2849:2973  {... */\n      pop\n        /* \"Ownable.sol\":2786:2973  function _transferOwnership(address newOwner) internal virtual {... */\n      pop\n      jump\t// out\n        /* \"Context.sol\":641:737  function _msgSender() internal view virtual returns (address) {... */\n    tag_76:\n        /* \"Context.sol\":694:701  address */\n      0x00\n        /* \"Context.sol\":720:730  msg.sender */\n      caller\n        /* \"Context.sol\":713:730  return msg.sender */\n      swap1\n      pop\n        /* \"Context.sol\":641:737  function _msgSender() internal view virtual returns (address) {... */\n      swap1\n      jump\t// out\n        /* \"#utility.yul\":7:82   */\n    tag_83:\n        /* \"#utility.yul\":40:46   */\n      0x00\n        /* \"#utility.yul\":73:75   */\n      0x40\n        /* \"#utility.yul\":67:76   */\n      mload\n        /* \"#utility.yul\":57:76   */\n      swap1\n      pop\n        /* \"#utility.yul\":7:82   */\n      swap1\n      jump\t// out\n        /* \"#utility.yul\":88:205   */\n    tag_84:\n        /* \"#utility.yul\":197:198   */\n      0x00\n        /* \"#utility.yul\":194:195   */\n      dup1\n        /* \"#utility.yul\":187:199   */\n      revert\n        /* \"#utility.yul\":211:328   */\n    tag_85:\n        /* \"#utility.yul\":320:321   */\n      0x00\n        /* \"#utility.yul\":317:318   */\n      dup1\n        /* \"#utility.yul\":310:322   */\n      revert\n        /* \"#utility.yul\":334:411   */\n    tag_86:\n        /* \"#utility.yul\":371:378   */\n      0x00\n        /* \"#utility.yul\":400:405   */\n      dup2\n        /* \"#utility.yul\":389:405   */\n      swap1\n      pop\n        /* \"#utility.yul\":334:411   */\n      swap2\n      swap1\n      pop\n      jump\t// out\n        /* \"#utility.yul\":417:539   */\n    tag_87:\n        /* \"#utility.yul\":490:514   */\n      tag_135\n        /* \"#utility.yul\":508:513   */\n      dup2\n        /* \"#utility.yul\":490:514   */\n      tag_86\n      jump\t// in\n    tag_135:\n        /* \"#utility.yul\":483:488   */\n      dup2\n        /* \"#utility.yul\":480:515   */\n      eq\n        /* \"#utility.yul\":470:533   */\n      tag_136\n      jumpi\n        /* \"#utility.yul\":529:530   */\n      0x00\n        /* \"#utility.yul\":526:527   */\n      dup1\n        /* \"#utility.yul\":519:531   */\n      revert\n        /* \"#utility.yul\":470:533   */\n    tag_136:\n        /* \"#utility.yul\":417:539   */\n      pop\n      jump\t// out\n        /* \"#utility.yul\":545:684   */\n    tag_88:\n        /* \"#utility.yul\":591:596   */\n      0x00\n        /* \"#utility.yul\":629:635   */\n      dup2\n        /* \"#utility.yul\":616:636   */\n      calldataload\n        /* \"#utility.yul\":607:636   */\n      swap1\n      pop\n        /* \"#utility.yul\":645:678   */\n      tag_138\n        /* \"#utility.yul\":672:677   */\n      dup2\n        /* \"#utility.yul\":645:678   */\n      tag_87\n      jump\t// in\n    tag_138:\n        /* \"#utility.yul\":545:684   */\n      swap3\n      swap2\n      pop\n      pop\n      jump\t// out\n        /* \"#utility.yul\":690:1019   */\n    tag_11:\n        /* \"#utility.yul\":749:755   */\n      0x00\n        /* \"#utility.yul\":798:800   */\n      0x20\n        /* \"#utility.yul\":786:795   */\n      dup3\n        /* \"#utility.yul\":777:784   */\n      dup5\n        /* \"#utility.yul\":773:796   */\n      sub\n        /* \"#utility.yul\":769:801   */\n      slt\n        /* \"#utility.yul\":766:885   */\n      iszero\n      tag_140\n      jumpi\n        /* \"#utility.yul\":804:883   */\n      tag_141\n      tag_84\n      jump\t// in\n    tag_141:\n        /* \"#utility.yul\":766:885   */\n    tag_140:\n        /* \"#utility.yul\":924:925   */\n      0x00\n        /* \"#utility.yul\":949:1002   */\n      tag_142\n        /* \"#utility.yul\":994:1001   */\n      dup5\n        /* \"#utility.yul\":985:991   */\n      dup3\n        /* \"#utility.yul\":974:983   */\n      dup6\n        /* \"#utility.yul\":970:992   */\n      add\n        /* \"#utility.yul\":949:1002   */\n      tag_88\n      jump\t// in\n    tag_142:\n        /* \"#utility.yul\":939:1002   */\n      swap2\n      pop\n        /* \"#utility.yul\":895:1012   */\n      pop\n        /* \"#utility.yul\":690:1019   */\n      swap3\n      swap2\n      pop\n      pop\n      jump\t// out\n        /* \"#utility.yul\":1025:1124   */\n    tag_89:\n        /* \"#utility.yul\":1077:1083   */\n      0x00\n        /* \"#utility.yul\":1111:1116   */\n      dup2\n        /* \"#utility.yul\":1105:1117   */\n      mload\n        /* \"#utility.yul\":1095:1117   */\n      swap1\n      pop\n        /* \"#utility.yul\":1025:1124   */\n      swap2\n      swap1\n      pop\n      jump\t// out\n        /* \"#utility.yul\":1130:1299   */\n    tag_90:\n        /* \"#utility.yul\":1214:1225   */\n      0x00\n        /* \"#utility.yul\":1248:1254   */\n      dup3\n        /* \"#utility.yul\":1243:1246   */\n      dup3\n        /* \"#utility.yul\":1236:1255   */\n      mstore\n        /* \"#utility.yul\":1288:1292   */\n      0x20\n        /* \"#utility.yul\":1283:1286   */\n      dup3\n        /* \"#utility.yul\":1279:1293   */\n      add\n        /* \"#utility.yul\":1264:1293   */\n      swap1\n      pop\n        /* \"#utility.yul\":1130:1299   */\n      swap3\n      swap2\n      pop\n      pop\n      jump\t// out\n        /* \"#utility.yul\":1305:1551   */\n    tag_91:\n        /* \"#utility.yul\":1386:1387   */\n      0x00\n        /* \"#utility.yul\":1396:1509   */\n    tag_146:\n        /* \"#utility.yul\":1410:1416   */\n      dup4\n        /* \"#utility.yul\":1407:1408   */\n      dup2\n        /* \"#utility.yul\":1404:1417   */\n      lt\n        /* \"#utility.yul\":1396:1509   */\n      iszero\n      tag_148\n      jumpi\n        /* \"#utility.yul\":1495:1496   */\n      dup1\n        /* \"#utility.yul\":1490:1493   */\n      dup3\n        /* \"#utility.yul\":1486:1497   */\n      add\n        /* \"#utility.yul\":1480:1498   */\n      mload\n        /* \"#utility.yul\":1476:1477   */\n      dup2\n        /* \"#utility.yul\":1471:1474   */\n      dup5\n        /* \"#utility.yul\":1467:1478   */\n      add\n        /* \"#utility.yul\":1460:1499   */\n      mstore\n        /* \"#utility.yul\":1432:1434   */\n      0x20\n        /* \"#utility.yul\":1429:1430   */\n      dup2\n        /* \"#utility.yul\":1425:1435   */\n      add\n        /* \"#utility.yul\":1420:1435   */\n      swap1\n      pop\n        /* \"#utility.yul\":1396:1509   */\n      jump(tag_146)\n    tag_148:\n        /* \"#utility.yul\":1543:1544   */\n      0x00\n        /* \"#utility.yul\":1534:1540   */\n      dup5\n        /* \"#utility.yul\":1529:1532   */\n      dup5\n        /* \"#utility.yul\":1525:1541   */\n      add\n        /* \"#utility.yul\":1518:1545   */\n      mstore\n        /* \"#utility.yul\":1367:1551   */\n      pop\n        /* \"#utility.yul\":1305:1551   */\n      pop\n      pop\n      pop\n      jump\t// out\n        /* \"#utility.yul\":1557:1659   */\n    tag_92:\n        /* \"#utility.yul\":1598:1604   */\n      0x00\n        /* \"#utility.yul\":1649:1651   */\n      0x1f\n        /* \"#utility.yul\":1645:1652   */\n      not\n        /* \"#utility.yul\":1640:1642   */\n      0x1f\n        /* \"#utility.yul\":1633:1638   */\n      dup4\n        /* \"#utility.yul\":1629:1643   */\n      add\n        /* \"#utility.yul\":1625:1653   */\n      and\n        /* \"#utility.yul\":1615:1653   */\n      swap1\n      pop\n        /* \"#utility.yul\":1557:1659   */\n      swap2\n      swap1\n      pop\n      jump\t// out\n        /* \"#utility.yul\":1665:2042   */\n    tag_93:\n        /* \"#utility.yul\":1753:1756   */\n      0x00\n        /* \"#utility.yul\":1781:1820   */\n      tag_151\n        /* \"#utility.yul\":1814:1819   */\n      dup3\n        /* \"#utility.yul\":1781:1820   */\n      tag_89\n      jump\t// in\n    tag_151:\n        /* \"#utility.yul\":1836:1907   */\n      tag_152\n        /* \"#utility.yul\":1900:1906   */\n      dup2\n        /* \"#utility.yul\":1895:1898   */\n      dup6\n        /* \"#utility.yul\":1836:1907   */\n      tag_90\n      jump\t// in\n    tag_152:\n        /* \"#utility.yul\":1829:1907   */\n      swap4\n      pop\n        /* \"#utility.yul\":1916:1981   */\n      tag_153\n        /* \"#utility.yul\":1974:1980   */\n      dup2\n        /* \"#utility.yul\":1969:1972   */\n      dup6\n        /* \"#utility.yul\":1962:1966   */\n      0x20\n        /* \"#utility.yul\":1955:1960   */\n      dup7\n        /* \"#utility.yul\":1951:1967   */\n      add\n        /* \"#utility.yul\":1916:1981   */\n      tag_91\n      jump\t// in\n    tag_153:\n        /* \"#utility.yul\":2006:2035   */\n      tag_154\n        /* \"#utility.yul\":2028:2034   */\n      dup2\n        /* \"#utility.yul\":2006:2035   */\n      tag_92\n      jump\t// in\n    tag_154:\n        /* \"#utility.yul\":2001:2004   */\n      dup5\n        /* \"#utility.yul\":1997:2036   */\n      add\n        /* \"#utility.yul\":1990:2036   */\n      swap2\n      pop\n        /* \"#utility.yul\":1757:2042   */\n      pop\n        /* \"#utility.yul\":1665:2042   */\n      swap3\n      swap2\n      pop\n      pop\n      jump\t// out\n        /* \"#utility.yul\":2048:2763   */\n    tag_14:\n        /* \"#utility.yul\":2257:2261   */\n      0x00\n        /* \"#utility.yul\":2295:2297   */\n      0x60\n        /* \"#utility.yul\":2284:2293   */\n      dup3\n        /* \"#utility.yul\":2280:2298   */\n      add\n        /* \"#utility.yul\":2272:2298   */\n      swap1\n      pop\n        /* \"#utility.yul\":2344:2353   */\n      dup2\n        /* \"#utility.yul\":2338:2342   */\n      dup2\n        /* \"#utility.yul\":2334:2354   */\n      sub\n        /* \"#utility.yul\":2330:2331   */\n      0x00\n        /* \"#utility.yul\":2319:2328   */\n      dup4\n        /* \"#utility.yul\":2315:2332   */\n      add\n        /* \"#utility.yul\":2308:2355   */\n      mstore\n        /* \"#utility.yul\":2372:2450   */\n      tag_156\n        /* \"#utility.yul\":2445:2449   */\n      dup2\n        /* \"#utility.yul\":2436:2442   */\n      dup7\n        /* \"#utility.yul\":2372:2450   */\n      tag_93\n      jump\t// in\n    tag_156:\n        /* \"#utility.yul\":2364:2450   */\n      swap1\n      pop\n        /* \"#utility.yul\":2497:2506   */\n      dup2\n        /* \"#utility.yul\":2491:2495   */\n      dup2\n        /* \"#utility.yul\":2487:2507   */\n      sub\n        /* \"#utility.yul\":2482:2484   */\n      0x20\n        /* \"#utility.yul\":2471:2480   */\n      dup4\n        /* \"#utility.yul\":2467:2485   */\n      add\n        /* \"#utility.yul\":2460:2508   */\n      mstore\n        /* \"#utility.yul\":2525:2603   */\n      tag_157\n        /* \"#utility.yul\":2598:2602   */\n      dup2\n        /* \"#utility.yul\":2589:2595   */\n      dup6\n        /* \"#utility.yul\":2525:2603   */\n      tag_93\n      jump\t// in\n    tag_157:\n        /* \"#utility.yul\":2517:2603   */\n      swap1\n      pop\n        /* \"#utility.yul\":2650:2659   */\n      dup2\n        /* \"#utility.yul\":2644:2648   */\n      dup2\n        /* \"#utility.yul\":2640:2660   */\n      sub\n        /* \"#utility.yul\":2635:2637   */\n      0x40\n        /* \"#utility.yul\":2624:2633   */\n      dup4\n        /* \"#utility.yul\":2620:2638   */\n      add\n        /* \"#utility.yul\":2613:2661   */\n      mstore\n        /* \"#utility.yul\":2678:2756   */\n      tag_158\n        /* \"#utility.yul\":2751:2755   */\n      dup2\n        /* \"#utility.yul\":2742:2748   */\n      dup5\n        /* \"#utility.yul\":2678:2756   */\n      tag_93\n      jump\t// in\n    tag_158:\n        /* \"#utility.yul\":2670:2756   */\n      swap1\n      pop\n        /* \"#utility.yul\":2048:2763   */\n      swap5\n      swap4\n      pop\n      pop\n      pop\n      pop\n      jump\t// out\n        /* \"#utility.yul\":2769:2886   */\n    tag_94:\n        /* \"#utility.yul\":2878:2879   */\n      0x00\n        /* \"#utility.yul\":2875:2876   */\n      dup1\n        /* \"#utility.yul\":2868:2880   */\n      revert\n        /* \"#utility.yul\":2892:3009   */\n    tag_95:\n        /* \"#utility.yul\":3001:3002   */\n      0x00\n        /* \"#utility.yul\":2998:2999   */\n      dup1\n        /* \"#utility.yul\":2991:3003   */\n      revert\n        /* \"#utility.yul\":3015:3195   */\n    tag_96:\n        /* \"#utility.yul\":3063:3140   */\n      0x4e487b7100000000000000000000000000000000000000000000000000000000\n        /* \"#utility.yul\":3060:3061   */\n      0x00\n        /* \"#utility.yul\":3053:3141   */\n      mstore\n        /* \"#utility.yul\":3160:3164   */\n      0x41\n        /* \"#utility.yul\":3157:3158   */\n      0x04\n        /* \"#utility.yul\":3150:3165   */\n      mstore\n        /* \"#utility.yul\":3184:3188   */\n      0x24\n        /* \"#utility.yul\":3181:3182   */\n      0x00\n        /* \"#utility.yul\":3174:3189   */\n      revert\n        /* \"#utility.yul\":3201:3482   */\n    tag_97:\n        /* \"#utility.yul\":3284:3311   */\n      tag_163\n        /* \"#utility.yul\":3306:3310   */\n      dup3\n        /* \"#utility.yul\":3284:3311   */\n      tag_92\n      jump\t// in\n    tag_163:\n        /* \"#utility.yul\":3276:3282   */\n      dup2\n        /* \"#utility.yul\":3272:3312   */\n      add\n        /* \"#utility.yul\":3414:3420   */\n      dup2\n        /* \"#utility.yul\":3402:3412   */\n      dup2\n        /* \"#utility.yul\":3399:3421   */\n      lt\n        /* \"#utility.yul\":3378:3396   */\n      0xffffffffffffffff\n        /* \"#utility.yul\":3366:3376   */\n      dup3\n        /* \"#utility.yul\":3363:3397   */\n      gt\n        /* \"#utility.yul\":3360:3422   */\n      or\n        /* \"#utility.yul\":3357:3445   */\n      iszero\n      tag_164\n      jumpi\n        /* \"#utility.yul\":3425:3443   */\n      tag_165\n      tag_96\n      jump\t// in\n    tag_165:\n        /* \"#utility.yul\":3357:3445   */\n    tag_164:\n        /* \"#utility.yul\":3465:3475   */\n      dup1\n        /* \"#utility.yul\":3461:3463   */\n      0x40\n        /* \"#utility.yul\":3454:3476   */\n      mstore\n        /* \"#utility.yul\":3244:3482   */\n      pop\n        /* \"#utility.yul\":3201:3482   */\n      pop\n      pop\n      jump\t// out\n        /* \"#utility.yul\":3488:3617   */\n    tag_98:\n        /* \"#utility.yul\":3522:3528   */\n      0x00\n        /* \"#utility.yul\":3549:3569   */\n      tag_167\n      tag_83\n      jump\t// in\n    tag_167:\n        /* \"#utility.yul\":3539:3569   */\n      swap1\n      pop\n        /* \"#utility.yul\":3578:3611   */\n      tag_168\n        /* \"#utility.yul\":3606:3610   */\n      dup3\n        /* \"#utility.yul\":3598:3604   */\n      dup3\n        /* \"#utility.yul\":3578:3611   */\n      tag_97\n      jump\t// in\n    tag_168:\n        /* \"#utility.yul\":3488:3617   */\n      swap2\n      swap1\n      pop\n      jump\t// out\n        /* \"#utility.yul\":3623:3931   */\n    tag_99:\n        /* \"#utility.yul\":3685:3689   */\n      0x00\n        /* \"#utility.yul\":3775:3793   */\n      0xffffffffffffffff\n        /* \"#utility.yul\":3767:3773   */\n      dup3\n        /* \"#utility.yul\":3764:3794   */\n      gt\n        /* \"#utility.yul\":3761:3817   */\n      iszero\n      tag_170\n      jumpi\n        /* \"#utility.yul\":3797:3815   */\n      tag_171\n      tag_96\n      jump\t// in\n    tag_171:\n        /* \"#utility.yul\":3761:3817   */\n    tag_170:\n        /* \"#utility.yul\":3835:3864   */\n      tag_172\n        /* \"#utility.yul\":3857:3863   */\n      dup3\n        /* \"#utility.yul\":3835:3864   */\n      tag_92\n      jump\t// in\n    tag_172:\n        /* \"#utility.yul\":3827:3864   */\n      swap1\n      pop\n        /* \"#utility.yul\":3919:3923   */\n      0x20\n        /* \"#utility.yul\":3913:3917   */\n      dup2\n        /* \"#utility.yul\":3909:3924   */\n      add\n        /* \"#utility.yul\":3901:3924   */\n      swap1\n      pop\n        /* \"#utility.yul\":3623:3931   */\n      swap2\n      swap1\n      pop\n      jump\t// out\n        /* \"#utility.yul\":3937:4083   */\n    tag_100:\n        /* \"#utility.yul\":4034:4040   */\n      dup3\n        /* \"#utility.yul\":4029:4032   */\n      dup2\n        /* \"#utility.yul\":4024:4027   */\n      dup4\n        /* \"#utility.yul\":4011:4041   */\n      calldatacopy\n        /* \"#utility.yul\":4075:4076   */\n      0x00\n        /* \"#utility.yul\":4066:4072   */\n      dup4\n        /* \"#utility.yul\":4061:4064   */\n      dup4\n        /* \"#utility.yul\":4057:4073   */\n      add\n        /* \"#utility.yul\":4050:4077   */\n      mstore\n        /* \"#utility.yul\":3937:4083   */\n      pop\n      pop\n      pop\n      jump\t// out\n        /* \"#utility.yul\":4089:4514   */\n    tag_101:\n        /* \"#utility.yul\":4167:4172   */\n      0x00\n        /* \"#utility.yul\":4192:4258   */\n      tag_175\n        /* \"#utility.yul\":4208:4257   */\n      tag_176\n        /* \"#utility.yul\":4250:4256   */\n      dup5\n        /* \"#utility.yul\":4208:4257   */\n      tag_99\n      jump\t// in\n    tag_176:\n        /* \"#utility.yul\":4192:4258   */\n      tag_98\n      jump\t// in\n    tag_175:\n        /* \"#utility.yul\":4183:4258   */\n      swap1\n      pop\n        /* \"#utility.yul\":4281:4287   */\n      dup3\n        /* \"#utility.yul\":4274:4279   */\n      dup2\n        /* \"#utility.yul\":4267:4288   */\n      mstore\n        /* \"#utility.yul\":4319:4323   */\n      0x20\n        /* \"#utility.yul\":4312:4317   */\n      dup2\n        /* \"#utility.yul\":4308:4324   */\n      add\n        /* \"#utility.yul\":4357:4360   */\n      dup5\n        /* \"#utility.yul\":4348:4354   */\n      dup5\n        /* \"#utility.yul\":4343:4346   */\n      dup5\n        /* \"#utility.yul\":4339:4355   */\n      add\n        /* \"#utility.yul\":4336:4361   */\n      gt\n        /* \"#utility.yul\":4333:4445   */\n      iszero\n      tag_177\n      jumpi\n        /* \"#utility.yul\":4364:4443   */\n      tag_178\n      tag_95\n      jump\t// in\n    tag_178:\n        /* \"#utility.yul\":4333:4445   */\n    tag_177:\n        /* \"#utility.yul\":4454:4508   */\n      tag_179\n        /* \"#utility.yul\":4501:4507   */\n      dup5\n        /* \"#utility.yul\":4496:4499   */\n      dup3\n        /* \"#utility.yul\":4491:4494   */\n      dup6\n        /* \"#utility.yul\":4454:4508   */\n      tag_100\n      jump\t// in\n    tag_179:\n        /* \"#utility.yul\":4173:4514   */\n      pop\n        /* \"#utility.yul\":4089:4514   */\n      swap4\n      swap3\n      pop\n      pop\n      pop\n      jump\t// out\n        /* \"#utility.yul\":4534:4874   */\n    tag_102:\n        /* \"#utility.yul\":4590:4595   */\n      0x00\n        /* \"#utility.yul\":4639:4642   */\n      dup3\n        /* \"#utility.yul\":4632:4636   */\n      0x1f\n        /* \"#utility.yul\":4624:4630   */\n      dup4\n        /* \"#utility.yul\":4620:4637   */\n      add\n        /* \"#utility.yul\":4616:4643   */\n      slt\n        /* \"#utility.yul\":4606:4728   */\n      tag_181\n      jumpi\n        /* \"#utility.yul\":4647:4726   */\n      tag_182\n      tag_94\n      jump\t// in\n    tag_182:\n        /* \"#utility.yul\":4606:4728   */\n    tag_181:\n        /* \"#utility.yul\":4764:4770   */\n      dup2\n        /* \"#utility.yul\":4751:4771   */\n      calldataload\n        /* \"#utility.yul\":4789:4868   */\n      tag_183\n        /* \"#utility.yul\":4864:4867   */\n      dup5\n        /* \"#utility.yul\":4856:4862   */\n      dup3\n        /* \"#utility.yul\":4849:4853   */\n      0x20\n        /* \"#utility.yul\":4841:4847   */\n      dup7\n        /* \"#utility.yul\":4837:4854   */\n      add\n        /* \"#utility.yul\":4789:4868   */\n      tag_101\n      jump\t// in\n    tag_183:\n        /* \"#utility.yul\":4780:4868   */\n      swap2\n      pop\n        /* \"#utility.yul\":4596:4874   */\n      pop\n        /* \"#utility.yul\":4534:4874   */\n      swap3\n      swap2\n      pop\n      pop\n      jump\t// out\n        /* \"#utility.yul\":4880:6039   */\n    tag_17:\n        /* \"#utility.yul\":4987:4993   */\n      0x00\n        /* \"#utility.yul\":4995:5001   */\n      dup1\n        /* \"#utility.yul\":5003:5009   */\n      0x00\n        /* \"#utility.yul\":5052:5054   */\n      0x60\n        /* \"#utility.yul\":5040:5049   */\n      dup5\n        /* \"#utility.yul\":5031:5038   */\n      dup7\n        /* \"#utility.yul\":5027:5050   */\n      sub\n        /* \"#utility.yul\":5023:5055   */\n      slt\n        /* \"#utility.yul\":5020:5139   */\n      iszero\n      tag_185\n      jumpi\n        /* \"#utility.yul\":5058:5137   */\n      tag_186\n      tag_84\n      jump\t// in\n    tag_186:\n        /* \"#utility.yul\":5020:5139   */\n    tag_185:\n        /* \"#utility.yul\":5206:5207   */\n      0x00\n        /* \"#utility.yul\":5195:5204   */\n      dup5\n        /* \"#utility.yul\":5191:5208   */\n      add\n        /* \"#utility.yul\":5178:5209   */\n      calldataload\n        /* \"#utility.yul\":5236:5254   */\n      0xffffffffffffffff\n        /* \"#utility.yul\":5228:5234   */\n      dup2\n        /* \"#utility.yul\":5225:5255   */\n      gt\n        /* \"#utility.yul\":5222:5339   */\n      iszero\n      tag_187\n      jumpi\n        /* \"#utility.yul\":5258:5337   */\n      tag_188\n      tag_85\n      jump\t// in\n    tag_188:\n        /* \"#utility.yul\":5222:5339   */\n    tag_187:\n        /* \"#utility.yul\":5363:5426   */\n      tag_189\n        /* \"#utility.yul\":5418:5425   */\n      dup7\n        /* \"#utility.yul\":5409:5415   */\n      dup3\n        /* \"#utility.yul\":5398:5407   */\n      dup8\n        /* \"#utility.yul\":5394:5416   */\n      add\n        /* \"#utility.yul\":5363:5426   */\n      tag_102\n      jump\t// in\n    tag_189:\n        /* \"#utility.yul\":5353:5426   */\n      swap4\n      pop\n        /* \"#utility.yul\":5149:5436   */\n      pop\n        /* \"#utility.yul\":5503:5505   */\n      0x20\n        /* \"#utility.yul\":5492:5501   */\n      dup5\n        /* \"#utility.yul\":5488:5506   */\n      add\n        /* \"#utility.yul\":5475:5507   */\n      calldataload\n        /* \"#utility.yul\":5534:5552   */\n      0xffffffffffffffff\n        /* \"#utility.yul\":5526:5532   */\n      dup2\n        /* \"#utility.yul\":5523:5553   */\n      gt\n        /* \"#utility.yul\":5520:5637   */\n      iszero\n      tag_190\n      jumpi\n        /* \"#utility.yul\":5556:5635   */\n      tag_191\n      tag_85\n      jump\t// in\n    tag_191:\n        /* \"#utility.yul\":5520:5637   */\n    tag_190:\n        /* \"#utility.yul\":5661:5724   */\n      tag_192\n        /* \"#utility.yul\":5716:5723   */\n      dup7\n        /* \"#utility.yul\":5707:5713   */\n      dup3\n        /* \"#utility.yul\":5696:5705   */\n      dup8\n        /* \"#utility.yul\":5692:5714   */\n      add\n        /* \"#utility.yul\":5661:5724   */\n      tag_102\n      jump\t// in\n    tag_192:\n        /* \"#utility.yul\":5651:5724   */\n      swap3\n      pop\n        /* \"#utility.yul\":5446:5734   */\n      pop\n        /* \"#utility.yul\":5801:5803   */\n      0x40\n        /* \"#utility.yul\":5790:5799   */\n      dup5\n        /* \"#utility.yul\":5786:5804   */\n      add\n        /* \"#utility.yul\":5773:5805   */\n      calldataload\n        /* \"#utility.yul\":5832:5850   */\n      0xffffffffffffffff\n        /* \"#utility.yul\":5824:5830   */\n      dup2\n        /* \"#utility.yul\":5821:5851   */\n      gt\n        /* \"#utility.yul\":5818:5935   */\n      iszero\n      tag_193\n      jumpi\n        /* \"#utility.yul\":5854:5933   */\n      tag_194\n      tag_85\n      jump\t// in\n    tag_194:\n        /* \"#utility.yul\":5818:5935   */\n    tag_193:\n        /* \"#utility.yul\":5959:6022   */\n      tag_195\n        /* \"#utility.yul\":6014:6021   */\n      dup7\n        /* \"#utility.yul\":6005:6011   */\n      dup3\n        /* \"#utility.yul\":5994:6003   */\n      dup8\n        /* \"#utility.yul\":5990:6012   */\n      add\n        /* \"#utility.yul\":5959:6022   */\n      tag_102\n      jump\t// in\n    tag_195:\n        /* \"#utility.yul\":5949:6022   */\n      swap2\n      pop\n        /* \"#utility.yul\":5744:6032   */\n      pop\n        /* \"#utility.yul\":4880:6039   */\n      swap3\n      pop\n      swap3\n      pop\n      swap3\n      jump\t// out\n        /* \"#utility.yul\":6045:6171   */\n    tag_103:\n        /* \"#utility.yul\":6082:6089   */\n      0x00\n        /* \"#utility.yul\":6122:6164   */\n      0xffffffffffffffffffffffffffffffffffffffff\n        /* \"#utility.yul\":6115:6120   */\n      dup3\n        /* \"#utility.yul\":6111:6165   */\n      and\n        /* \"#utility.yul\":6100:6165   */\n      swap1\n      pop\n        /* \"#utility.yul\":6045:6171   */\n      swap2\n      swap1\n      pop\n      jump\t// out\n        /* \"#utility.yul\":6177:6273   */\n    tag_104:\n        /* \"#utility.yul\":6214:6221   */\n      0x00\n        /* \"#utility.yul\":6243:6267   */\n      tag_198\n        /* \"#utility.yul\":6261:6266   */\n      dup3\n        /* \"#utility.yul\":6243:6267   */\n      tag_103\n      jump\t// in\n    tag_198:\n        /* \"#utility.yul\":6232:6267   */\n      swap1\n      pop\n        /* \"#utility.yul\":6177:6273   */\n      swap2\n      swap1\n      pop\n      jump\t// out\n        /* \"#utility.yul\":6279:6397   */\n    tag_105:\n        /* \"#utility.yul\":6366:6390   */\n      tag_200\n        /* \"#utility.yul\":6384:6389   */\n      dup2\n        /* \"#utility.yul\":6366:6390   */\n      tag_104\n      jump\t// in\n    tag_200:\n        /* \"#utility.yul\":6361:6364   */\n      dup3\n        /* \"#utility.yul\":6354:6391   */\n      mstore\n        /* \"#utility.yul\":6279:6397   */\n      pop\n      pop\n      jump\t// out\n        /* \"#utility.yul\":6403:6625   */\n    tag_24:\n        /* \"#utility.yul\":6496:6500   */\n      0x00\n        /* \"#utility.yul\":6534:6536   */\n      0x20\n        /* \"#utility.yul\":6523:6532   */\n      dup3\n        /* \"#utility.yul\":6519:6537   */\n      add\n        /* \"#utility.yul\":6511:6537   */\n      swap1\n      pop\n        /* \"#utility.yul\":6547:6618   */\n      tag_202\n        /* \"#utility.yul\":6615:6616   */\n      0x00\n        /* \"#utility.yul\":6604:6613   */\n      dup4\n        /* \"#utility.yul\":6600:6617   */\n      add\n        /* \"#utility.yul\":6591:6597   */\n      dup5\n        /* \"#utility.yul\":6547:6618   */\n      tag_105\n      jump\t// in\n    tag_202:\n        /* \"#utility.yul\":6403:6625   */\n      swap3\n      swap2\n      pop\n      pop\n      jump\t// out\n        /* \"#utility.yul\":6631:6708   */\n    tag_106:\n        /* \"#utility.yul\":6668:6675   */\n      0x00\n        /* \"#utility.yul\":6697:6702   */\n      dup2\n        /* \"#utility.yul\":6686:6702   */\n      swap1\n      pop\n        /* \"#utility.yul\":6631:6708   */\n      swap2\n      swap1\n      pop\n      jump\t// out\n        /* \"#utility.yul\":6714:6832   */\n    tag_107:\n        /* \"#utility.yul\":6801:6825   */\n      tag_205\n        /* \"#utility.yul\":6819:6824   */\n      dup2\n        /* \"#utility.yul\":6801:6825   */\n      tag_106\n      jump\t// in\n    tag_205:\n        /* \"#utility.yul\":6796:6799   */\n      dup3\n        /* \"#utility.yul\":6789:6826   */\n      mstore\n        /* \"#utility.yul\":6714:6832   */\n      pop\n      pop\n      jump\t// out\n        /* \"#utility.yul\":6838:7060   */\n    tag_28:\n        /* \"#utility.yul\":6931:6935   */\n      0x00\n        /* \"#utility.yul\":6969:6971   */\n      0x20\n        /* \"#utility.yul\":6958:6967   */\n      dup3\n        /* \"#utility.yul\":6954:6972   */\n      add\n        /* \"#utility.yul\":6946:6972   */\n      swap1\n      pop\n        /* \"#utility.yul\":6982:7053   */\n      tag_207\n        /* \"#utility.yul\":7050:7051   */\n      0x00\n        /* \"#utility.yul\":7039:7048   */\n      dup4\n        /* \"#utility.yul\":7035:7052   */\n      add\n        /* \"#utility.yul\":7026:7032   */\n      dup5\n        /* \"#utility.yul\":6982:7053   */\n      tag_107\n      jump\t// in\n    tag_207:\n        /* \"#utility.yul\":6838:7060   */\n      swap3\n      swap2\n      pop\n      pop\n      jump\t// out\n        /* \"#utility.yul\":7066:7188   */\n    tag_108:\n        /* \"#utility.yul\":7139:7163   */\n      tag_209\n        /* \"#utility.yul\":7157:7162   */\n      dup2\n        /* \"#utility.yul\":7139:7163   */\n      tag_104\n      jump\t// in\n    tag_209:\n        /* \"#utility.yul\":7132:7137   */\n      dup2\n        /* \"#utility.yul\":7129:7164   */\n      eq\n        /* \"#utility.yul\":7119:7182   */\n      tag_210\n      jumpi\n        /* \"#utility.yul\":7178:7179   */\n      0x00\n        /* \"#utility.yul\":7175:7176   */\n      dup1\n        /* \"#utility.yul\":7168:7180   */\n      revert\n        /* \"#utility.yul\":7119:7182   */\n    tag_210:\n        /* \"#utility.yul\":7066:7188   */\n      pop\n      jump\t// out\n        /* \"#utility.yul\":7194:7333   */\n    tag_109:\n        /* \"#utility.yul\":7240:7245   */\n      0x00\n        /* \"#utility.yul\":7278:7284   */\n      dup2\n        /* \"#utility.yul\":7265:7285   */\n      calldataload\n        /* \"#utility.yul\":7256:7285   */\n      swap1\n      pop\n        /* \"#utility.yul\":7294:7327   */\n      tag_212\n        /* \"#utility.yul\":7321:7326   */\n      dup2\n        /* \"#utility.yul\":7294:7327   */\n      tag_108\n      jump\t// in\n    tag_212:\n        /* \"#utility.yul\":7194:7333   */\n      swap3\n      swap2\n      pop\n      pop\n      jump\t// out\n        /* \"#utility.yul\":7339:7668   */\n    tag_31:\n        /* \"#utility.yul\":7398:7404   */\n      0x00\n        /* \"#utility.yul\":7447:7449   */\n      0x20\n        /* \"#utility.yul\":7435:7444   */\n      dup3\n        /* \"#utility.yul\":7426:7433   */\n      dup5\n        /* \"#utility.yul\":7422:7445   */\n      sub\n        /* \"#utility.yul\":7418:7450   */\n      slt\n        /* \"#utility.yul\":7415:7534   */\n      iszero\n      tag_214\n      jumpi\n        /* \"#utility.yul\":7453:7532   */\n      tag_215\n      tag_84\n      jump\t// in\n    tag_215:\n        /* \"#utility.yul\":7415:7534   */\n    tag_214:\n        /* \"#utility.yul\":7573:7574   */\n      0x00\n        /* \"#utility.yul\":7598:7651   */\n      tag_216\n        /* \"#utility.yul\":7643:7650   */\n      dup5\n        /* \"#utility.yul\":7634:7640   */\n      dup3\n        /* \"#utility.yul\":7623:7632   */\n      dup6\n        /* \"#utility.yul\":7619:7641   */\n      add\n        /* \"#utility.yul\":7598:7651   */\n      tag_109\n      jump\t// in\n    tag_216:\n        /* \"#utility.yul\":7588:7651   */\n      swap2\n      pop\n        /* \"#utility.yul\":7544:7661   */\n      pop\n        /* \"#utility.yul\":7339:7668   */\n      swap3\n      swap2\n      pop\n      pop\n      jump\t// out\n        /* \"#utility.yul\":7674:7854   */\n    tag_110:\n        /* \"#utility.yul\":7722:7799   */\n      0x4e487b7100000000000000000000000000000000000000000000000000000000\n        /* \"#utility.yul\":7719:7720   */\n      0x00\n        /* \"#utility.yul\":7712:7800   */\n      mstore\n        /* \"#utility.yul\":7819:7823   */\n      0x22\n        /* \"#utility.yul\":7816:7817   */\n      0x04\n        /* \"#utility.yul\":7809:7824   */\n      mstore\n        /* \"#utility.yul\":7843:7847   */\n      0x24\n        /* \"#utility.yul\":7840:7841   */\n      0x00\n        /* \"#utility.yul\":7833:7848   */\n      revert\n        /* \"#utility.yul\":7860:8180   */\n    tag_34:\n        /* \"#utility.yul\":7904:7910   */\n      0x00\n        /* \"#utility.yul\":7941:7942   */\n      0x02\n        /* \"#utility.yul\":7935:7939   */\n      dup3\n        /* \"#utility.yul\":7931:7943   */\n      div\n        /* \"#utility.yul\":7921:7943   */\n      swap1\n      pop\n        /* \"#utility.yul\":7988:7989   */\n      0x01\n        /* \"#utility.yul\":7982:7986   */\n      dup3\n        /* \"#utility.yul\":7978:7990   */\n      and\n        /* \"#utility.yul\":8009:8027   */\n      dup1\n        /* \"#utility.yul\":7999:8080   */\n      tag_219\n      jumpi\n        /* \"#utility.yul\":8065:8069   */\n      0x7f\n        /* \"#utility.yul\":8057:8063   */\n      dup3\n        /* \"#utility.yul\":8053:8070   */\n      and\n        /* \"#utility.yul\":8043:8070   */\n      swap2\n      pop\n        /* \"#utility.yul\":7999:8080   */\n    tag_219:\n        /* \"#utility.yul\":8127:8129   */\n      0x20\n        /* \"#utility.yul\":8119:8125   */\n      dup3\n        /* \"#utility.yul\":8116:8130   */\n      lt\n        /* \"#utility.yul\":8096:8114   */\n      dup2\n        /* \"#utility.yul\":8093:8131   */\n      sub\n        /* \"#utility.yul\":8090:8174   */\n      tag_220\n      jumpi\n        /* \"#utility.yul\":8146:8164   */\n      tag_221\n      tag_110\n      jump\t// in\n    tag_221:\n        /* \"#utility.yul\":8090:8174   */\n    tag_220:\n        /* \"#utility.yul\":7911:8180   */\n      pop\n        /* \"#utility.yul\":7860:8180   */\n      swap2\n      swap1\n      pop\n      jump\t// out\n        /* \"#utility.yul\":8186:8334   */\n    tag_111:\n        /* \"#utility.yul\":8288:8299   */\n      0x00\n        /* \"#utility.yul\":8325:8328   */\n      dup2\n        /* \"#utility.yul\":8310:8328   */\n      swap1\n      pop\n        /* \"#utility.yul\":8186:8334   */\n      swap3\n      swap2\n      pop\n      pop\n      jump\t// out\n        /* \"#utility.yul\":8340:8730   */\n    tag_112:\n        /* \"#utility.yul\":8446:8449   */\n      0x00\n        /* \"#utility.yul\":8474:8513   */\n      tag_224\n        /* \"#utility.yul\":8507:8512   */\n      dup3\n        /* \"#utility.yul\":8474:8513   */\n      tag_89\n      jump\t// in\n    tag_224:\n        /* \"#utility.yul\":8529:8618   */\n      tag_225\n        /* \"#utility.yul\":8611:8617   */\n      dup2\n        /* \"#utility.yul\":8606:8609   */\n      dup6\n        /* \"#utility.yul\":8529:8618   */\n      tag_111\n      jump\t// in\n    tag_225:\n        /* \"#utility.yul\":8522:8618   */\n      swap4\n      pop\n        /* \"#utility.yul\":8627:8692   */\n      tag_226\n        /* \"#utility.yul\":8685:8691   */\n      dup2\n        /* \"#utility.yul\":8680:8683   */\n      dup6\n        /* \"#utility.yul\":8673:8677   */\n      0x20\n        /* \"#utility.yul\":8666:8671   */\n      dup7\n        /* \"#utility.yul\":8662:8678   */\n      add\n        /* \"#utility.yul\":8627:8692   */\n      tag_91\n      jump\t// in\n    tag_226:\n        /* \"#utility.yul\":8717:8723   */\n      dup1\n        /* \"#utility.yul\":8712:8715   */\n      dup5\n        /* \"#utility.yul\":8708:8724   */\n      add\n        /* \"#utility.yul\":8701:8724   */\n      swap2\n      pop\n        /* \"#utility.yul\":8450:8730   */\n      pop\n        /* \"#utility.yul\":8340:8730   */\n      swap3\n      swap2\n      pop\n      pop\n      jump\t// out\n        /* \"#utility.yul\":8736:9331   */\n    tag_54:\n        /* \"#utility.yul\":8964:8967   */\n      0x00\n        /* \"#utility.yul\":8986:9081   */\n      tag_228\n        /* \"#utility.yul\":9077:9080   */\n      dup3\n        /* \"#utility.yul\":9068:9074   */\n      dup7\n        /* \"#utility.yul\":8986:9081   */\n      tag_112\n      jump\t// in\n    tag_228:\n        /* \"#utility.yul\":8979:9081   */\n      swap2\n      pop\n        /* \"#utility.yul\":9098:9193   */\n      tag_229\n        /* \"#utility.yul\":9189:9192   */\n      dup3\n        /* \"#utility.yul\":9180:9186   */\n      dup6\n        /* \"#utility.yul\":9098:9193   */\n      tag_112\n      jump\t// in\n    tag_229:\n        /* \"#utility.yul\":9091:9193   */\n      swap2\n      pop\n        /* \"#utility.yul\":9210:9305   */\n      tag_230\n        /* \"#utility.yul\":9301:9304   */\n      dup3\n        /* \"#utility.yul\":9292:9298   */\n      dup5\n        /* \"#utility.yul\":9210:9305   */\n      tag_112\n      jump\t// in\n    tag_230:\n        /* \"#utility.yul\":9203:9305   */\n      swap2\n      pop\n        /* \"#utility.yul\":9322:9325   */\n      dup2\n        /* \"#utility.yul\":9315:9325   */\n      swap1\n      pop\n        /* \"#utility.yul\":8736:9331   */\n      swap5\n      swap4\n      pop\n      pop\n      pop\n      pop\n      jump\t// out\n        /* \"#utility.yul\":9337:9478   */\n    tag_113:\n        /* \"#utility.yul\":9386:9390   */\n      0x00\n        /* \"#utility.yul\":9409:9412   */\n      dup2\n        /* \"#utility.yul\":9401:9412   */\n      swap1\n      pop\n        /* \"#utility.yul\":9432:9435   */\n      dup2\n        /* \"#utility.yul\":9429:9430   */\n      0x00\n        /* \"#utility.yul\":9422:9436   */\n      mstore\n        /* \"#utility.yul\":9466:9470   */\n      0x20\n        /* \"#utility.yul\":9463:9464   */\n      0x00\n        /* \"#utility.yul\":9453:9471   */\n      keccak256\n        /* \"#utility.yul\":9445:9471   */\n      swap1\n      pop\n        /* \"#utility.yul\":9337:9478   */\n      swap2\n      swap1\n      pop\n      jump\t// out\n        /* \"#utility.yul\":9484:9577   */\n    tag_114:\n        /* \"#utility.yul\":9521:9527   */\n      0x00\n        /* \"#utility.yul\":9568:9570   */\n      0x20\n        /* \"#utility.yul\":9563:9565   */\n      0x1f\n        /* \"#utility.yul\":9556:9561   */\n      dup4\n        /* \"#utility.yul\":9552:9566   */\n      add\n        /* \"#utility.yul\":9548:9571   */\n      div\n        /* \"#utility.yul\":9538:9571   */\n      swap1\n      pop\n        /* \"#utility.yul\":9484:9577   */\n      swap2\n      swap1\n      pop\n      jump\t// out\n        /* \"#utility.yul\":9583:9690   */\n    tag_115:\n        /* \"#utility.yul\":9627:9635   */\n      0x00\n        /* \"#utility.yul\":9677:9682   */\n      dup3\n        /* \"#utility.yul\":9671:9675   */\n      dup3\n        /* \"#utility.yul\":9667:9683   */\n      shl\n        /* \"#utility.yul\":9646:9683   */\n      swap1\n      pop\n        /* \"#utility.yul\":9583:9690   */\n      swap3\n      swap2\n      pop\n      pop\n      jump\t// out\n        /* \"#utility.yul\":9696:10089   */\n    tag_116:\n        /* \"#utility.yul\":9765:9771   */\n      0x00\n        /* \"#utility.yul\":9815:9816   */\n      0x08\n        /* \"#utility.yul\":9803:9813   */\n      dup4\n        /* \"#utility.yul\":9799:9817   */\n      mul\n        /* \"#utility.yul\":9838:9935   */\n      tag_235\n        /* \"#utility.yul\":9868:9934   */\n      0xffffffffffffffffffffffffffffffffffffffffffffffffffffffffffffffff\n        /* \"#utility.yul\":9857:9866   */\n      dup3\n        /* \"#utility.yul\":9838:9935   */\n      tag_115\n      jump\t// in\n    tag_235:\n        /* \"#utility.yul\":9956:9995   */\n      tag_236\n        /* \"#utility.yul\":9986:9994   */\n      dup7\n        /* \"#utility.yul\":9975:9984   */\n      dup4\n        /* \"#utility.yul\":9956:9995   */\n      tag_115\n      jump\t// in\n    tag_236:\n        /* \"#utility.yul\":9944:9995   */\n      swap6\n      pop\n        /* \"#utility.yul\":10028:10032   */\n      dup1\n        /* \"#utility.yul\":10024:10033   */\n      not\n        /* \"#utility.yul\":10017:10022   */\n      dup5\n        /* \"#utility.yul\":10013:10034   */\n      and\n        /* \"#utility.yul\":10004:10034   */\n      swap4\n      pop\n        /* \"#utility.yul\":10077:10081   */\n      dup1\n        /* \"#utility.yul\":10067:10075   */\n      dup7\n        /* \"#utility.yul\":10063:10082   */\n      and\n        /* \"#utility.yul\":10056:10061   */\n      dup5\n        /* \"#utility.yul\":10053:10083   */\n      or\n        /* \"#utility.yul\":10043:10083   */\n      swap3\n      pop\n        /* \"#utility.yul\":9772:10089   */\n      pop\n      pop\n        /* \"#utility.yul\":9696:10089   */\n      swap4\n      swap3\n      pop\n      pop\n      pop\n      jump\t// out\n        /* \"#utility.yul\":10095:10155   */\n    tag_117:\n        /* \"#utility.yul\":10123:10126   */\n      0x00\n        /* \"#utility.yul\":10144:10149   */\n      dup2\n        /* \"#utility.yul\":10137:10149   */\n      swap1\n      pop\n        /* \"#utility.yul\":10095:10155   */\n      swap2\n      swap1\n      pop\n      jump\t// out\n        /* \"#utility.yul\":10161:10303   */\n    tag_118:\n        /* \"#utility.yul\":10211:10220   */\n      0x00\n        /* \"#utility.yul\":10244:10297   */\n      tag_239\n        /* \"#utility.yul\":10262:10296   */\n      tag_240\n        /* \"#utility.yul\":10271:10295   */\n      tag_241\n        /* \"#utility.yul\":10289:10294   */\n      dup5\n        /* \"#utility.yul\":10271:10295   */\n      tag_106\n      jump\t// in\n    tag_241:\n        /* \"#utility.yul\":10262:10296   */\n      tag_117\n      jump\t// in\n    tag_240:\n        /* \"#utility.yul\":10244:10297   */\n      tag_106\n      jump\t// in\n    tag_239:\n        /* \"#utility.yul\":10231:10297   */\n      swap1\n      pop\n        /* \"#utility.yul\":10161:10303   */\n      swap2\n      swap1\n      pop\n      jump\t// out\n        /* \"#utility.yul\":10309:10384   */\n    tag_119:\n        /* \"#utility.yul\":10352:10355   */\n      0x00\n        /* \"#utility.yul\":10373:10378   */\n      dup2\n        /* \"#utility.yul\":10366:10378   */\n      swap1\n      pop\n        /* \"#utility.yul\":10309:10384   */\n      swap2\n      swap1\n      pop\n      jump\t// out\n        /* \"#utility.yul\":10390:10659   */\n    tag_120:\n        /* \"#utility.yul\":10500:10539   */\n      tag_244\n        /* \"#utility.yul\":10531:10538   */\n      dup4\n        /* \"#utility.yul\":10500:10539   */\n      tag_118\n      jump\t// in\n    tag_244:\n        /* \"#utility.yul\":10561:10652   */\n      tag_245\n        /* \"#utility.yul\":10610:10651   */\n      tag_246\n        /* \"#utility.yul\":10634:10650   */\n      dup3\n        /* \"#utility.yul\":10610:10651   */\n      tag_119\n      jump\t// in\n    tag_246:\n        /* \"#utility.yul\":10602:10608   */\n      dup5\n        /* \"#utility.yul\":10595:10599   */\n      dup5\n        /* \"#utility.yul\":10589:10600   */\n      sload\n        /* \"#utility.yul\":10561:10652   */\n      tag_116\n      jump\t// in\n    tag_245:\n        /* \"#utility.yul\":10555:10559   */\n      dup3\n        /* \"#utility.yul\":10548:10653   */\n      sstore\n        /* \"#utility.yul\":10466:10659   */\n      pop\n        /* \"#utility.yul\":10390:10659   */\n      pop\n      pop\n      pop\n      jump\t// out\n        /* \"#utility.yul\":10665:10738   */\n    tag_121:\n        /* \"#utility.yul\":10710:10713   */\n      0x00\n        /* \"#utility.yul\":10665:10738   */\n      swap1\n      jump\t// out\n        /* \"#utility.yul\":10744:10933   */\n    tag_122:\n        /* \"#utility.yul\":10821:10853   */\n      tag_249\n      tag_121\n      jump\t// in\n    tag_249:\n        /* \"#utility.yul\":10862:10927   */\n      tag_250\n        /* \"#utility.yul\":10920:10926   */\n      dup2\n        /* \"#utility.yul\":10912:10918   */\n      dup5\n        /* \"#utility.yul\":10906:10910   */\n      dup5\n        /* \"#utility.yul\":10862:10927   */\n      tag_120\n      jump\t// in\n    tag_250:\n        /* \"#utility.yul\":10797:10933   */\n      pop\n        /* \"#utility.yul\":10744:10933   */\n      pop\n      pop\n      jump\t// out\n        /* \"#utility.yul\":10939:11125   */\n    tag_123:\n        /* \"#utility.yul\":10999:11119   */\n    tag_252:\n        /* \"#utility.yul\":11016:11019   */\n      dup2\n        /* \"#utility.yul\":11009:11014   */\n      dup2\n        /* \"#utility.yul\":11006:11020   */\n      lt\n        /* \"#utility.yul\":10999:11119   */\n      iszero\n      tag_254\n      jumpi\n        /* \"#utility.yul\":11070:11109   */\n      tag_255\n        /* \"#utility.yul\":11107:11108   */\n      0x00\n        /* \"#utility.yul\":11100:11105   */\n      dup3\n        /* \"#utility.yul\":11070:11109   */\n      tag_122\n      jump\t// in\n    tag_255:\n        /* \"#utility.yul\":11043:11044   */\n      0x01\n        /* \"#utility.yul\":11036:11041   */\n      dup2\n        /* \"#utility.yul\":11032:11045   */\n      add\n        /* \"#utility.yul\":11023:11045   */\n      swap1\n      pop\n        /* \"#utility.yul\":10999:11119   */\n      jump(tag_252)\n    tag_254:\n        /* \"#utility.yul\":10939:11125   */\n      pop\n      pop\n      jump\t// out\n        /* \"#utility.yul\":11131:11674   */\n    tag_124:\n        /* \"#utility.yul\":11232:11234   */\n      0x1f\n        /* \"#utility.yul\":11227:11230   */\n      dup3\n        /* \"#utility.yul\":11224:11235   */\n      gt\n        /* \"#utility.yul\":11221:11667   */\n      iszero\n      tag_257\n      jumpi\n        /* \"#utility.yul\":11266:11304   */\n      tag_258\n        /* \"#utility.yul\":11298:11303   */\n      dup2\n        /* \"#utility.yul\":11266:11304   */\n      tag_113\n      jump\t// in\n    tag_258:\n        /* \"#utility.yul\":11350:11379   */\n      tag_259\n        /* \"#utility.yul\":11368:11378   */\n      dup5\n        /* \"#utility.yul\":11350:11379   */\n      tag_114\n      jump\t// in\n    tag_259:\n        /* \"#utility.yul\":11340:11348   */\n      dup2\n        /* \"#utility.yul\":11336:11380   */\n      add\n        /* \"#utility.yul\":11533:11535   */\n      0x20\n        /* \"#utility.yul\":11521:11531   */\n      dup6\n        /* \"#utility.yul\":11518:11536   */\n      lt\n        /* \"#utility.yul\":11515:11564   */\n      iszero\n      tag_260\n      jumpi\n        /* \"#utility.yul\":11554:11562   */\n      dup2\n        /* \"#utility.yul\":11539:11562   */\n      swap1\n      pop\n        /* \"#utility.yul\":11515:11564   */\n    tag_260:\n        /* \"#utility.yul\":11577:11657   */\n      tag_261\n        /* \"#utility.yul\":11633:11655   */\n      tag_262\n        /* \"#utility.yul\":11651:11654   */\n      dup6\n        /* \"#utility.yul\":11633:11655   */\n      tag_114\n      jump\t// in\n    tag_262:\n        /* \"#utility.yul\":11623:11631   */\n      dup4\n        /* \"#utility.yul\":11619:11656   */\n      add\n        /* \"#utility.yul\":11606:11617   */\n      dup3\n        /* \"#utility.yul\":11577:11657   */\n      tag_123\n      jump\t// in\n    tag_261:\n        /* \"#utility.yul\":11236:11667   */\n      pop\n      pop\n        /* \"#utility.yul\":11221:11667   */\n    tag_257:\n        /* \"#utility.yul\":11131:11674   */\n      pop\n      pop\n      pop\n      jump\t// out\n        /* \"#utility.yul\":11680:11797   */\n    tag_125:\n        /* \"#utility.yul\":11734:11742   */\n      0x00\n        /* \"#utility.yul\":11784:11789   */\n      dup3\n        /* \"#utility.yul\":11778:11782   */\n      dup3\n        /* \"#utility.yul\":11774:11790   */\n      shr\n        /* \"#utility.yul\":11753:11790   */\n      swap1\n      pop\n        /* \"#utility.yul\":11680:11797   */\n      swap3\n      swap2\n      pop\n      pop\n      jump\t// out\n        /* \"#utility.yul\":11803:11972   */\n    tag_126:\n        /* \"#utility.yul\":11847:11853   */\n      0x00\n        /* \"#utility.yul\":11880:11931   */\n      tag_265\n        /* \"#utility.yul\":11928:11929   */\n      0x00\n        /* \"#utility.yul\":11924:11930   */\n      not\n        /* \"#utility.yul\":11916:11921   */\n      dup5\n        /* \"#utility.yul\":11913:11914   */\n      0x08\n        /* \"#utility.yul\":11909:11922   */\n      mul\n        /* \"#utility.yul\":11880:11931   */\n      tag_125\n      jump\t// in\n    tag_265:\n        /* \"#utility.yul\":11876:11932   */\n      not\n        /* \"#utility.yul\":11961:11965   */\n      dup1\n        /* \"#utility.yul\":11955:11959   */\n      dup4\n        /* \"#utility.yul\":11951:11966   */\n      and\n        /* \"#utility.yul\":11941:11966   */\n      swap2\n      pop\n        /* \"#utility.yul\":11854:11972   */\n      pop\n        /* \"#utility.yul\":11803:11972   */\n      swap3\n      swap2\n      pop\n      pop\n      jump\t// out\n        /* \"#utility.yul\":11977:12272   */\n    tag_127:\n        /* \"#utility.yul\":12053:12057   */\n      0x00\n        /* \"#utility.yul\":12199:12228   */\n      tag_267\n        /* \"#utility.yul\":12224:12227   */\n      dup4\n        /* \"#utility.yul\":12218:12222   */\n      dup4\n        /* \"#utility.yul\":12199:12228   */\n      tag_126\n      jump\t// in\n    tag_267:\n        /* \"#utility.yul\":12191:12228   */\n      swap2\n      pop\n        /* \"#utility.yul\":12261:12264   */\n      dup3\n        /* \"#utility.yul\":12258:12259   */\n      0x02\n        /* \"#utility.yul\":12254:12265   */\n      mul\n        /* \"#utility.yul\":12248:12252   */\n      dup3\n        /* \"#utility.yul\":12245:12266   */\n      or\n        /* \"#utility.yul\":12237:12266   */\n      swap1\n      pop\n        /* \"#utility.yul\":11977:12272   */\n      swap3\n      swap2\n      pop\n      pop\n      jump\t// out\n        /* \"#utility.yul\":12277:13672   */\n    tag_56:\n        /* \"#utility.yul\":12394:12431   */\n      tag_269\n        /* \"#utility.yul\":12427:12430   */\n      dup3\n        /* \"#utility.yul\":12394:12431   */\n      tag_89\n      jump\t// in\n    tag_269:\n        /* \"#utility.yul\":12496:12514   */\n      0xffffffffffffffff\n        /* \"#utility.yul\":12488:12494   */\n      dup2\n        /* \"#utility.yul\":12485:12515   */\n      gt\n        /* \"#utility.yul\":12482:12538   */\n      iszero\n      tag_270\n      jumpi\n        /* \"#utility.yul\":12518:12536   */\n      tag_271\n      tag_96\n      jump\t// in\n    tag_271:\n        /* \"#utility.yul\":12482:12538   */\n    tag_270:\n        /* \"#utility.yul\":12562:12600   */\n      tag_272\n        /* \"#utility.yul\":12594:12598   */\n      dup3\n        /* \"#utility.yul\":12588:12599   */\n      sload\n        /* \"#utility.yul\":12562:12600   */\n      tag_34\n      jump\t// in\n    tag_272:\n        /* \"#utility.yul\":12647:12714   */\n      tag_273\n        /* \"#utility.yul\":12707:12713   */\n      dup3\n        /* \"#utility.yul\":12699:12705   */\n      dup3\n        /* \"#utility.yul\":12693:12697   */\n      dup6\n        /* \"#utility.yul\":12647:12714   */\n      tag_124\n      jump\t// in\n    tag_273:\n        /* \"#utility.yul\":12741:12742   */\n      0x00\n        /* \"#utility.yul\":12765:12769   */\n      0x20\n        /* \"#utility.yul\":12752:12769   */\n      swap1\n      pop\n        /* \"#utility.yul\":12797:12799   */\n      0x1f\n        /* \"#utility.yul\":12789:12795   */\n      dup4\n        /* \"#utility.yul\":12786:12800   */\n      gt\n        /* \"#utility.yul\":12814:12815   */\n      0x01\n        /* \"#utility.yul\":12809:13427   */\n      dup2\n      eq\n      tag_275\n      jumpi\n        /* \"#utility.yul\":13471:13472   */\n      0x00\n        /* \"#utility.yul\":13488:13494   */\n      dup5\n        /* \"#utility.yul\":13485:13562   */\n      iszero\n      tag_276\n      jumpi\n        /* \"#utility.yul\":13537:13546   */\n      dup3\n        /* \"#utility.yul\":13532:13535   */\n      dup8\n        /* \"#utility.yul\":13528:13547   */\n      add\n        /* \"#utility.yul\":13522:13548   */\n      mload\n        /* \"#utility.yul\":13513:13548   */\n      swap1\n      pop\n        /* \"#utility.yul\":13485:13562   */\n    tag_276:\n        /* \"#utility.yul\":13588:13655   */\n      tag_277\n        /* \"#utility.yul\":13648:13654   */\n      dup6\n        /* \"#utility.yul\":13641:13646   */\n      dup3\n        /* \"#utility.yul\":13588:13655   */\n      tag_127\n      jump\t// in\n    tag_277:\n        /* \"#utility.yul\":13582:13586   */\n      dup7\n        /* \"#utility.yul\":13575:13656   */\n      sstore\n        /* \"#utility.yul\":13444:13666   */\n      pop\n        /* \"#utility.yul\":12779:13666   */\n      jump(tag_274)\n        /* \"#utility.yul\":12809:13427   */\n    tag_275:\n        /* \"#utility.yul\":12861:12865   */\n      0x1f\n        /* \"#utility.yul\":12857:12866   */\n      not\n        /* \"#utility.yul\":12849:12855   */\n      dup5\n        /* \"#utility.yul\":12845:12867   */\n      and\n        /* \"#utility.yul\":12895:12932   */\n      tag_278\n        /* \"#utility.yul\":12927:12931   */\n      dup7\n        /* \"#utility.yul\":12895:12932   */\n      tag_113\n      jump\t// in\n    tag_278:\n        /* \"#utility.yul\":12954:12955   */\n      0x00\n        /* \"#utility.yul\":12968:13176   */\n    tag_279:\n        /* \"#utility.yul\":12982:12989   */\n      dup3\n        /* \"#utility.yul\":12979:12980   */\n      dup2\n        /* \"#utility.yul\":12976:12990   */\n      lt\n        /* \"#utility.yul\":12968:13176   */\n      iszero\n      tag_281\n      jumpi\n        /* \"#utility.yul\":13061:13070   */\n      dup5\n        /* \"#utility.yul\":13056:13059   */\n      dup10\n        /* \"#utility.yul\":13052:13071   */\n      add\n        /* \"#utility.yul\":13046:13072   */\n      mload\n        /* \"#utility.yul\":13038:13044   */\n      dup3\n        /* \"#utility.yul\":13031:13073   */\n      sstore\n        /* \"#utility.yul\":13112:13113   */\n      0x01\n        /* \"#utility.yul\":13104:13110   */\n      dup3\n        /* \"#utility.yul\":13100:13114   */\n      add\n        /* \"#utility.yul\":13090:13114   */\n      swap2\n      pop\n        /* \"#utility.yul\":13159:13161   */\n      0x20\n        /* \"#utility.yul\":13148:13157   */\n      dup6\n        /* \"#utility.yul\":13144:13162   */\n      add\n        /* \"#utility.yul\":13131:13162   */\n      swap5\n      pop\n        /* \"#utility.yul\":13005:13009   */\n      0x20\n        /* \"#utility.yul\":13002:13003   */\n      dup2\n        /* \"#utility.yul\":12998:13010   */\n      add\n        /* \"#utility.yul\":12993:13010   */\n      swap1\n      pop\n        /* \"#utility.yul\":12968:13176   */\n      jump(tag_279)\n    tag_281:\n        /* \"#utility.yul\":13204:13210   */\n      dup7\n        /* \"#utility.yul\":13195:13202   */\n      dup4\n        /* \"#utility.yul\":13192:13211   */\n      lt\n        /* \"#utility.yul\":13189:13368   */\n      iszero\n      tag_282\n      jumpi\n        /* \"#utility.yul\":13262:13271   */\n      dup5\n        /* \"#utility.yul\":13257:13260   */\n      dup10\n        /* \"#utility.yul\":13253:13272   */\n      add\n        /* \"#utility.yul\":13247:13273   */\n      mload\n        /* \"#utility.yul\":13305:13353   */\n      tag_283\n        /* \"#utility.yul\":13347:13351   */\n      0x1f\n        /* \"#utility.yul\":13339:13345   */\n      dup10\n        /* \"#utility.yul\":13335:13352   */\n      and\n        /* \"#utility.yul\":13324:13333   */\n      dup3\n        /* \"#utility.yul\":13305:13353   */\n      tag_126\n      jump\t// in\n    tag_283:\n        /* \"#utility.yul\":13297:13303   */\n      dup4\n        /* \"#utility.yul\":13290:13354   */\n      sstore\n        /* \"#utility.yul\":13212:13368   */\n      pop\n        /* \"#utility.yul\":13189:13368   */\n    tag_282:\n        /* \"#utility.yul\":13414:13415   */\n      0x01\n        /* \"#utility.yul\":13410:13411   */\n      0x02\n        /* \"#utility.yul\":13402:13408   */\n      dup9\n        /* \"#utility.yul\":13398:13412   */\n      mul\n        /* \"#utility.yul\":13394:13416   */\n      add\n        /* \"#utility.yul\":13388:13392   */\n      dup9\n        /* \"#utility.yul\":13381:13417   */\n      sstore\n        /* \"#utility.yul\":12816:13427   */\n      pop\n      pop\n      pop\n        /* \"#utility.yul\":12779:13666   */\n    tag_274:\n      pop\n        /* \"#utility.yul\":12369:13672   */\n      pop\n      pop\n      pop\n        /* \"#utility.yul\":12277:13672   */\n      pop\n      pop\n      jump\t// out\n        /* \"#utility.yul\":13678:13858   */\n    tag_128:\n        /* \"#utility.yul\":13726:13803   */\n      0x4e487b7100000000000000000000000000000000000000000000000000000000\n        /* \"#utility.yul\":13723:13724   */\n      0x00\n        /* \"#utility.yul\":13716:13804   */\n      mstore\n        /* \"#utility.yul\":13823:13827   */\n      0x11\n        /* \"#utility.yul\":13820:13821   */\n      0x04\n        /* \"#utility.yul\":13813:13828   */\n      mstore\n        /* \"#utility.yul\":13847:13851   */\n      0x24\n        /* \"#utility.yul\":13844:13845   */\n      0x00\n        /* \"#utility.yul\":13837:13852   */\n      revert\n        /* \"#utility.yul\":13864:14097   */\n    tag_60:\n        /* \"#utility.yul\":13903:13906   */\n      0x00\n        /* \"#utility.yul\":13926:13950   */\n      tag_286\n        /* \"#utility.yul\":13944:13949   */\n      dup3\n        /* \"#utility.yul\":13926:13950   */\n      tag_106\n      jump\t// in\n    tag_286:\n        /* \"#utility.yul\":13917:13950   */\n      swap2\n      pop\n        /* \"#utility.yul\":13972:14038   */\n      0xffffffffffffffffffffffffffffffffffffffffffffffffffffffffffffffff\n        /* \"#utility.yul\":13965:13970   */\n      dup3\n        /* \"#utility.yul\":13962:14039   */\n      sub\n        /* \"#utility.yul\":13959:14062   */\n      tag_287\n      jumpi\n        /* \"#utility.yul\":14042:14060   */\n      tag_288\n      tag_128\n      jump\t// in\n    tag_288:\n        /* \"#utility.yul\":13959:14062   */\n    tag_287:\n        /* \"#utility.yul\":14089:14090   */\n      0x01\n        /* \"#utility.yul\":14082:14087   */\n      dup3\n        /* \"#utility.yul\":14078:14091   */\n      add\n        /* \"#utility.yul\":14071:14091   */\n      swap1\n      pop\n        /* \"#utility.yul\":13864:14097   */\n      swap2\n      swap1\n      pop\n      jump\t// out\n\n    auxdata: 0xa264697066735822122034102b14beff630ba995a91dc0c029199b6165442e27b6cfe11d8b8db18fde1b64736f6c63430008140033\n}\n","bytecode":{"linkReferences":{},"object":"60806040525f600155348015610013575f80fd5b50336100248161002a60201b60201c565b506100eb565b5f805f9054906101000a900473ffffffffffffffffffffffffffffffffffffffff169050815f806101000a81548173ffffffffffffffffffffffffffffffffffffffff021916908373ffffffffffffffffffffffffffffffffffffffff1602179055508173ffffffffffffffffffffffffffffffffffffffff168173ffffffffffffffffffffffffffffffffffffffff167f8be0079c531659141344cd1fd0a4f28419497f9722a3daafe3b4186f6b6457e060405160405180910390a35050565b610daa806100f85f395ff3fe608060405234801561000f575f80fd5b5060043610610060575f3560e01c80632b2805db146100645780635ec4382514610096578063715018a6146100b25780638da5cb5b146100bc578063a5b16b2e146100da578063f2fde38b146100f8575b5f80fd5b61007e60048036038101906100799190610620565b610114565b60405161008d939291906106d5565b60405180910390f35b6100b060048036038101906100ab919061084b565b6102cc565b005b6100ba6103c9565b005b6100c46103dc565b6040516100d1919061092e565b60405180910390f35b6100e2610403565b6040516100ef919061095f565b60405180910390f35b610112600480360381019061010d91906109a2565b610409565b005b6002602052805f5260405f205f91509050805f018054610133906109fa565b80601f016020809104026020016040519081016040528092919081815260200182805461015f906109fa565b80156101aa5780601f10610181576101008083540402835291602001916101aa565b820191905f5260205f20905b81548152906001019060200180831161018d57829003601f168201915b5050505050908060010180546101bf906109fa565b80601f01602080910402602001604051908101604052809291908181526020018280546101eb906109fa565b80156102365780601f1061020d57610100808354040283529160200191610236565b820191905f5260205f20905b81548152906001019060200180831161021957829003601f168201915b50505050509080600201805461024b906109fa565b80601f0160208091040260200160405190810160405280929190818152602001828054610277906109fa565b80156102c25780601f10610299576101008083540402835291602001916102c2565b820191905f5260205f20905b8154815290600101906020018083116102a557829003601f168201915b5050505050905083565b6102d461048d565b5f8383836040516020016102ea93929190610a64565b60405160208183030381529060405280519060200120905060405180606001604052808581526020018481526020018381525060025f8381526020019081526020015f205f820151815f0190816103419190610c31565b5060208201518160010190816103579190610c31565b50604082015181600201908161036d9190610c31565b5090505060015f81548092919061038390610d2d565b91905055507f49d7e5f3a72ba15517e05917a8ca0e41c3eb07ffd03a643280753c50f1b6965d8484846040516103bb939291906106d5565b60405180910390a150505050565b6103d161048d565b6103da5f610514565b565b5f805f9054906101000a900473ffffffffffffffffffffffffffffffffffffffff16905090565b60015481565b61041161048d565b5f73ffffffffffffffffffffffffffffffffffffffff168173ffffffffffffffffffffffffffffffffffffffff1603610481575f6040517f1e4fbdf7000000000000000000000000000000000000000000000000000000008152600401610478919061092e565b60405180910390fd5b61048a81610514565b50565b6104956105d5565b73ffffffffffffffffffffffffffffffffffffffff166104b36103dc565b73ffffffffffffffffffffffffffffffffffffffff1614610512576104d66105d5565b6040517f118cdaa7000000000000000000000000000000000000000000000000000000008152600401610509919061092e565b60405180910390fd5b565b5f805f9054906101000a900473ffffffffffffffffffffffffffffffffffffffff169050815f806101000a81548173ffffffffffffffffffffffffffffffffffffffff021916908373ffffffffffffffffffffffffffffffffffffffff1602179055508173ffffffffffffffffffffffffffffffffffffffff168173ffffffffffffffffffffffffffffffffffffffff167f8be0079c531659141344cd1fd0a4f28419497f9722a3daafe3b4186f6b6457e060405160405180910390a35050565b5f33905090565b5f604051905090565b5f80fd5b5f80fd5b5f819050919050565b6105ff816105ed565b8114610609575f80fd5b50565b5f8135905061061a816105f6565b92915050565b5f60208284031215610635576106346105e5565b5b5f6106428482850161060c565b91505092915050565b5f81519050919050565b5f82825260208201905092915050565b5f5b83811015610682578082015181840152602081019050610667565b5f8484015250505050565b5f601f19601f8301169050919050565b5f6106a78261064b565b6106b18185610655565b93506106c1818560208601610665565b6106ca8161068d565b840191505092915050565b5f6060820190508181035f8301526106ed818661069d565b90508181036020830152610701818561069d565b90508181036040830152610715818461069d565b9050949350505050565b5f80fd5b5f80fd5b7f4e487b71000000000000000000000000000000000000000000000000000000005f52604160045260245ffd5b61075d8261068d565b810181811067ffffffffffffffff8211171561077c5761077b610727565b5b80604052505050565b5f61078e6105dc565b905061079a8282610754565b919050565b5f67ffffffffffffffff8211156107b9576107b8610727565b5b6107c28261068d565b9050602081019050919050565b828183375f83830152505050565b5f6107ef6107ea8461079f565b610785565b90508281526020810184848401111561080b5761080a610723565b5b6108168482856107cf565b509392505050565b5f82601f8301126108325761083161071f565b5b81356108428482602086016107dd565b91505092915050565b5f805f60608486031215610862576108616105e5565b5b5f84013567ffffffffffffffff81111561087f5761087e6105e9565b5b61088b8682870161081e565b935050602084013567ffffffffffffffff8111156108ac576108ab6105e9565b5b6108b88682870161081e565b925050604084013567ffffffffffffffff8111156108d9576108d86105e9565b5b6108e58682870161081e565b9150509250925092565b5f73ffffffffffffffffffffffffffffffffffffffff82169050919050565b5f610918826108ef565b9050919050565b6109288161090e565b82525050565b5f6020820190506109415f83018461091f565b92915050565b5f819050919050565b61095981610947565b82525050565b5f6020820190506109725f830184610950565b92915050565b6109818161090e565b811461098b575f80fd5b50565b5f8135905061099c81610978565b92915050565b5f602082840312156109b7576109b66105e5565b5b5f6109c48482850161098e565b91505092915050565b7f4e487b71000000000000000000000000000000000000000000000000000000005f52602260045260245ffd5b5f6002820490506001821680610a1157607f821691505b602082108103610a2457610a236109cd565b5b50919050565b5f81905092915050565b5f610a3e8261064b565b610a488185610a2a565b9350610a58818560208601610665565b80840191505092915050565b5f610a6f8286610a34565b9150610a7b8285610a34565b9150610a878284610a34565b9150819050949350505050565b5f819050815f5260205f209050919050565b5f6020601f8301049050919050565b5f82821b905092915050565b5f60088302610af07fffffffffffffffffffffffffffffffffffffffffffffffffffffffffffffffff82610ab5565b610afa8683610ab5565b95508019841693508086168417925050509392505050565b5f819050919050565b5f610b35610b30610b2b84610947565b610b12565b610947565b9050919050565b5f819050919050565b610b4e83610b1b565b610b62610b5a82610b3c565b848454610ac1565b825550505050565b5f90565b610b76610b6a565b610b81818484610b45565b505050565b5b81811015610ba457610b995f82610b6e565b600181019050610b87565b5050565b601f821115610be957610bba81610a94565b610bc384610aa6565b81016020851015610bd2578190505b610be6610bde85610aa6565b830182610b86565b50505b505050565b5f82821c905092915050565b5f610c095f1984600802610bee565b1980831691505092915050565b5f610c218383610bfa565b9150826002028217905092915050565b610c3a8261064b565b67ffffffffffffffff811115610c5357610c52610727565b5b610c5d82546109fa565b610c68828285610ba8565b5f60209050601f831160018114610c99575f8415610c87578287015190505b610c918582610c16565b865550610cf8565b601f198416610ca786610a94565b5f5b82811015610cce57848901518255600182019150602085019450602081019050610ca9565b86831015610ceb5784890151610ce7601f891682610bfa565b8355505b6001600288020188555050505b505050505050565b7f4e487b71000000000000000000000000000000000000000000000000000000005f52601160045260245ffd5b5f610d3782610947565b91507fffffffffffffffffffffffffffffffffffffffffffffffffffffffffffffffff8203610d6957610d68610d00565b5b60018201905091905056fea264697066735822122034102b14beff630ba995a91dc0c029199b6165442e27b6cfe11d8b8db18fde1b64736f6c63430008140033","opcodes":"PUSH1 0x80 PUSH1 0x40 MSTORE PUSH0 PUSH1 0x1 SSTORE CALLVALUE DUP1 ISZERO PUSH2 0x13 JUMPI PUSH0 DUP1 REVERT JUMPDEST POP CALLER PUSH2 0x24 DUP2 PUSH2 0x2A PUSH1 0x20 SHL PUSH1 0x20 SHR JUMP JUMPDEST POP PUSH2 0xEB JUMP JUMPDEST PUSH0 DUP1 PUSH0 SWAP1 SLOAD SWAP1 PUSH2 0x100 EXP SWAP1 DIV PUSH20 0xFFFFFFFFFFFFFFFFFFFFFFFFFFFFFFFFFFFFFFFF AND SWAP1 POP DUP2 PUSH0 DUP1 PUSH2 0x100 EXP DUP2 SLOAD DUP2 PUSH20 0xFFFFFFFFFFFFFFFFFFFFFFFFFFFFFFFFFFFFFFFF MUL NOT AND SWAP1 DUP4 PUSH20 0xFFFFFFFFFFFFFFFFFFFFFFFFFFFFFFFFFFFFFFFF AND MUL OR SWAP1 SSTORE POP DUP2 PUSH20 0xFFFFFFFFFFFFFFFFFFFFFFFFFFFFFFFFFFFFFFFF AND DUP2 PUSH20 0xFFFFFFFFFFFFFFFFFFFFFFFFFFFFFFFFFFFFFFFF AND PUSH32 0x8BE0079C531659141344CD1FD0A4F28419497F9722A3DAAFE3B4186F6B6457E0 PUSH1 0x40 MLOAD PUSH1 0x40 MLOAD DUP1 SWAP2 SUB SWAP1 LOG3 POP POP JUMP JUMPDEST PUSH2 0xDAA DUP1 PUSH2 0xF8 PUSH0 CODECOPY PUSH0 RETURN INVALID PUSH1 0x80 PUSH1 0x40 MSTORE CALLVALUE DUP1 ISZERO PUSH2 0xF JUMPI PUSH0 DUP1 REVERT JUMPDEST POP PUSH1 0x4 CALLDATASIZE LT PUSH2 0x60 JUMPI PUSH0 CALLDATALOAD PUSH1 0xE0 SHR DUP1 PUSH4 0x2B2805DB EQ PUSH2 0x64 JUMPI DUP1 PUSH4 0x5EC43825 EQ PUSH2 0x96 JUMPI DUP1 PUSH4 0x715018A6 EQ PUSH2 0xB2 JUMPI DUP1 PUSH4 0x8DA5CB5B EQ PUSH2 0xBC JUMPI DUP1 PUSH4 0xA5B16B2E EQ PUSH2 0xDA JUMPI DUP1 PUSH4 0xF2FDE38B EQ PUSH2 0xF8 JUMPI JUMPDEST PUSH0 DUP1 REVERT JUMPDEST PUSH2 0x7E PUSH1 0x4 DUP1 CALLDATASIZE SUB DUP2 ADD SWAP1 PUSH2 0x79 SWAP2 SWAP1 PUSH2 0x620 JUMP JUMPDEST PUSH2 0x114 JUMP JUMPDEST PUSH1 0x40 MLOAD PUSH2 0x8D SWAP4 SWAP3 SWAP2 SWAP1 PUSH2 0x6D5 JUMP JUMPDEST PUSH1 0x40 MLOAD DUP1 SWAP2 SUB SWAP1 RETURN JUMPDEST PUSH2 0xB0 PUSH1 0x4 DUP1 CALLDATASIZE SUB DUP2 ADD SWAP1 PUSH2 0xAB SWAP2 SWAP1 PUSH2 0x84B JUMP JUMPDEST PUSH2 0x2CC JUMP JUMPDEST STOP JUMPDEST PUSH2 0xBA PUSH2 0x3C9 JUMP JUMPDEST STOP JUMPDEST PUSH2 0xC4 PUSH2 0x3DC JUMP JUMPDEST PUSH1 0x40 MLOAD PUSH2 0xD1 SWAP2 SWAP1 PUSH2 0x92E JUMP JUMPDEST PUSH1 0x40 MLOAD DUP1 SWAP2 SUB SWAP1 RETURN JUMPDEST PUSH2 0xE2 PUSH2 0x403 JUMP JUMPDEST PUSH1 0x40 MLOAD PUSH2 0xEF SWAP2 SWAP1 PUSH2 0x95F JUMP JUMPDEST PUSH1 0x40 MLOAD DUP1 SWAP2 SUB SWAP1 RETURN JUMPDEST PUSH2 0x112 PUSH1 0x4 DUP1 CALLDATASIZE SUB DUP2 ADD SWAP1 PUSH2 0x10D SWAP2 SWAP1 PUSH2 0x9A2 JUMP JUMPDEST PUSH2 0x409 JUMP JUMPDEST STOP JUMPDEST PUSH1 0x2 PUSH1 0x20 MSTORE DUP1 PUSH0 MSTORE PUSH1 0x40 PUSH0 KECCAK256 PUSH0 SWAP2 POP SWAP1 POP DUP1 PUSH0 ADD DUP1 SLOAD PUSH2 0x133 SWAP1 PUSH2 0x9FA JUMP JUMPDEST DUP1 PUSH1 0x1F ADD PUSH1 0x20 DUP1 SWAP2 DIV MUL PUSH1 0x20 ADD PUSH1 0x40 MLOAD SWAP1 DUP2 ADD PUSH1 0x40 MSTORE DUP1 SWAP3 SWAP2 SWAP1 DUP2 DUP2 MSTORE PUSH1 0x20 ADD DUP3 DUP1 SLOAD PUSH2 0x15F SWAP1 PUSH2 0x9FA JUMP JUMPDEST DUP1 ISZERO PUSH2 0x1AA JUMPI DUP1 PUSH1 0x1F LT PUSH2 0x181 JUMPI PUSH2 0x100 DUP1 DUP4 SLOAD DIV MUL DUP4 MSTORE SWAP2 PUSH1 0x20 ADD SWAP2 PUSH2 0x1AA JUMP JUMPDEST DUP3 ADD SWAP2 SWAP1 PUSH0 MSTORE PUSH1 0x20 PUSH0 KECCAK256 SWAP1 JUMPDEST DUP2 SLOAD DUP2 MSTORE SWAP1 PUSH1 0x1 ADD SWAP1 PUSH1 0x20 ADD DUP1 DUP4 GT PUSH2 0x18D JUMPI DUP3 SWAP1 SUB PUSH1 0x1F AND DUP3 ADD SWAP2 JUMPDEST POP POP POP POP POP SWAP1 DUP1 PUSH1 0x1 ADD DUP1 SLOAD PUSH2 0x1BF SWAP1 PUSH2 0x9FA JUMP JUMPDEST DUP1 PUSH1 0x1F ADD PUSH1 0x20 DUP1 SWAP2 DIV MUL PUSH1 0x20 ADD PUSH1 0x40 MLOAD SWAP1 DUP2 ADD PUSH1 0x40 MSTORE DUP1 SWAP3 SWAP2 SWAP1 DUP2 DUP2 MSTORE PUSH1 0x20 ADD DUP3 DUP1 SLOAD PUSH2 0x1EB SWAP1 PUSH2 0x9FA JUMP JUMPDEST DUP1 ISZERO PUSH2 0x236 JUMPI DUP1 PUSH1 0x1F LT PUSH2 0x20D JUMPI PUSH2 0x100 DUP1 DUP4 SLOAD DIV MUL DUP4 MSTORE SWAP2 PUSH1 0x20 ADD SWAP2 PUSH2 0x236 JUMP JUMPDEST DUP3 ADD SWAP2 SWAP1 PUSH0 MSTORE PUSH1 0x20 PUSH0 KECCAK256 SWAP1 JUMPDEST DUP2 SLOAD DUP2 MSTORE SWAP1 PUSH1 0x1 ADD SWAP1 PUSH1 0x20 ADD DUP1 DUP4 GT PUSH2 0x219 JUMPI DUP3 SWAP1 SUB PUSH1 0x1F AND DUP3 ADD SWAP2 JUMPDEST POP POP POP POP POP SWAP1 DUP1 PUSH1 0x2 ADD DUP1 SLOAD PUSH2 0x24B SWAP1 PUSH2 0x9FA JUMP JUMPDEST DUP1 PUSH1 0x1F ADD PUSH1 0x20 DUP1 SWAP2 DIV MUL PUSH1 0x20 ADD PUSH1 0x40 MLOAD SWAP1 DUP2 ADD PUSH1 0x40 MSTORE DUP1 SWAP3 SWAP2 SWAP1 DUP2 DUP2 MSTORE PUSH1 0x20 ADD DUP3 DUP1 SLOAD PUSH2 0x277 SWAP1 PUSH2 0x9FA JUMP JUMPDEST DUP1 ISZERO PUSH2 0x2C2 JUMPI DUP1 PUSH1 0x1F LT PUSH2 0x299 JUMPI PUSH2 0x100 DUP1 DUP4 SLOAD DIV MUL DUP4 MSTORE SWAP2 PUSH1 0x20 ADD SWAP2 PUSH2 0x2C2 JUMP JUMPDEST DUP3 ADD SWAP2 SWAP1 PUSH0 MSTORE PUSH1 0x20 PUSH0 KECCAK256 SWAP1 JUMPDEST DUP2 SLOAD DUP2 MSTORE SWAP1 PUSH1 0x1 ADD SWAP1 PUSH1 0x20 ADD DUP1 DUP4 GT PUSH2 0x2A5 JUMPI DUP3 SWAP1 SUB PUSH1 0x1F AND DUP3 ADD SWAP2 JUMPDEST POP POP POP POP POP SWAP1 POP DUP4 JUMP JUMPDEST PUSH2 0x2D4 PUSH2 0x48D JUMP JUMPDEST PUSH0 DUP4 DUP4 DUP4 PUSH1 0x40 MLOAD PUSH1 0x20 ADD PUSH2 0x2EA SWAP4 SWAP3 SWAP2 SWAP1 PUSH2 0xA64 JUMP JUMPDEST PUSH1 0x40 MLOAD PUSH1 0x20 DUP2 DUP4 SUB SUB DUP2 MSTORE SWAP1 PUSH1 0x40 MSTORE DUP1 MLOAD SWAP1 PUSH1 0x20 ADD KECCAK256 SWAP1 POP PUSH1 0x40 MLOAD DUP1 PUSH1 0x60 ADD PUSH1 0x40 MSTORE DUP1 DUP6 DUP2 MSTORE PUSH1 0x20 ADD DUP5 DUP2 MSTORE PUSH1 0x20 ADD DUP4 DUP2 MSTORE POP PUSH1 0x2 PUSH0 DUP4 DUP2 MSTORE PUSH1 0x20 ADD SWAP1 DUP2 MSTORE PUSH1 0x20 ADD PUSH0 KECCAK256 PUSH0 DUP3 ADD MLOAD DUP2 PUSH0 ADD SWAP1 DUP2 PUSH2 0x341 SWAP2 SWAP1 PUSH2 0xC31 JUMP JUMPDEST POP PUSH1 0x20 DUP3 ADD MLOAD DUP2 PUSH1 0x1 ADD SWAP1 DUP2 PUSH2 0x357 SWAP2 SWAP1 PUSH2 0xC31 JUMP JUMPDEST POP PUSH1 0x40 DUP3 ADD MLOAD DUP2 PUSH1 0x2 ADD SWAP1 DUP2 PUSH2 0x36D SWAP2 SWAP1 PUSH2 0xC31 JUMP JUMPDEST POP SWAP1 POP POP PUSH1 0x1 PUSH0 DUP2 SLOAD DUP1 SWAP3 SWAP2 SWAP1 PUSH2 0x383 SWAP1 PUSH2 0xD2D JUMP JUMPDEST SWAP2 SWAP1 POP SSTORE POP PUSH32 0x49D7E5F3A72BA15517E05917A8CA0E41C3EB07FFD03A643280753C50F1B6965D DUP5 DUP5 DUP5 PUSH1 0x40 MLOAD PUSH2 0x3BB SWAP4 SWAP3 SWAP2 SWAP1 PUSH2 0x6D5 JUMP JUMPDEST PUSH1 0x40 MLOAD DUP1 SWAP2 SUB SWAP1 LOG1 POP POP POP POP JUMP JUMPDEST PUSH2 0x3D1 PUSH2 0x48D JUMP JUMPDEST PUSH2 0x3DA PUSH0 PUSH2 0x514 JUMP JUMPDEST JUMP JUMPDEST PUSH0 DUP1 PUSH0 SWAP1 SLOAD SWAP1 PUSH2 0x100 EXP SWAP1 DIV PUSH20 0xFFFFFFFFFFFFFFFFFFFFFFFFFFFFFFFFFFFFFFFF AND SWAP1 POP SWAP1 JUMP JUMPDEST PUSH1 0x1 SLOAD DUP2 JUMP JUMPDEST PUSH2 0x411 PUSH2 0x48D JUMP JUMPDEST PUSH0 PUSH20 0xFFFFFFFFFFFFFFFFFFFFFFFFFFFFFFFFFFFFFFFF AND DUP2 PUSH20 0xFFFFFFFFFFFFFFFFFFFFFFFFFFFFFFFFFFFFFFFF AND SUB PUSH2 0x481 JUMPI PUSH0 PUSH1 0x40 MLOAD PUSH32 0x1E4FBDF700000000000000000000000000000000000000000000000000000000 DUP2 MSTORE PUSH1 0x4 ADD PUSH2 0x478 SWAP2 SWAP1 PUSH2 0x92E JUMP JUMPDEST PUSH1 0x40 MLOAD DUP1 SWAP2 SUB SWAP1 REVERT JUMPDEST PUSH2 0x48A DUP2 PUSH2 0x514 JUMP JUMPDEST POP JUMP JUMPDEST PUSH2 0x495 PUSH2 0x5D5 JUMP JUMPDEST PUSH20 0xFFFFFFFFFFFFFFFFFFFFFFFFFFFFFFFFFFFFFFFF AND PUSH2 0x4B3 PUSH2 0x3DC JUMP JUMPDEST PUSH20 0xFFFFFFFFFFFFFFFFFFFFFFFFFFFFFFFFFFFFFFFF AND EQ PUSH2 0x512 JUMPI PUSH2 0x4D6 PUSH2 0x5D5 JUMP JUMPDEST PUSH1 0x40 MLOAD PUSH32 0x118CDAA700000000000000000000000000000000000000000000000000000000 DUP2 MSTORE PUSH1 0x4 ADD PUSH2 0x509 SWAP2 SWAP1 PUSH2 0x92E JUMP JUMPDEST PUSH1 0x40 MLOAD DUP1 SWAP2 SUB SWAP1 REVERT JUMPDEST JUMP JUMPDEST PUSH0 DUP1 PUSH0 SWAP1 SLOAD SWAP1 PUSH2 0x100 EXP SWAP1 DIV PUSH20 0xFFFFFFFFFFFFFFFFFFFFFFFFFFFFFFFFFFFFFFFF AND SWAP1 POP DUP2 PUSH0 DUP1 PUSH2 0x100 EXP DUP2 SLOAD DUP2 PUSH20 0xFFFFFFFFFFFFFFFFFFFFFFFFFFFFFFFFFFFFFFFF MUL NOT AND SWAP1 DUP4 PUSH20 0xFFFFFFFFFFFFFFFFFFFFFFFFFFFFFFFFFFFFFFFF AND MUL OR SWAP1 SSTORE POP DUP2 PUSH20 0xFFFFFFFFFFFFFFFFFFFFFFFFFFFFFFFFFFFFFFFF AND DUP2 PUSH20 0xFFFFFFFFFFFFFFFFFFFFFFFFFFFFFFFFFFFFFFFF AND PUSH32 0x8BE0079C531659141344CD1FD0A4F28419497F9722A3DAAFE3B4186F6B6457E0 PUSH1 0x40 MLOAD PUSH1 0x40 MLOAD DUP1 SWAP2 SUB SWAP1 LOG3 POP POP JUMP JUMPDEST PUSH0 CALLER SWAP1 POP SWAP1 JUMP JUMPDEST PUSH0 PUSH1 0x40 MLOAD SWAP1 POP SWAP1 JUMP JUMPDEST PUSH0 DUP1 REVERT JUMPDEST PUSH0 DUP1 REVERT JUMPDEST PUSH0 DUP2 SWAP1 POP SWAP2 SWAP1 POP JUMP JUMPDEST PUSH2 0x5FF DUP2 PUSH2 0x5ED JUMP JUMPDEST DUP2 EQ PUSH2 0x609 JUMPI PUSH0 DUP1 REVERT JUMPDEST POP JUMP JUMPDEST PUSH0 DUP2 CALLDATALOAD SWAP1 POP PUSH2 0x61A DUP2 PUSH2 0x5F6 JUMP JUMPDEST SWAP3 SWAP2 POP POP JUMP JUMPDEST PUSH0 PUSH1 0x20 DUP3 DUP5 SUB SLT ISZERO PUSH2 0x635 JUMPI PUSH2 0x634 PUSH2 0x5E5 JUMP JUMPDEST JUMPDEST PUSH0 PUSH2 0x642 DUP5 DUP3 DUP6 ADD PUSH2 0x60C JUMP JUMPDEST SWAP2 POP POP SWAP3 SWAP2 POP POP JUMP JUMPDEST PUSH0 DUP2 MLOAD SWAP1 POP SWAP2 SWAP1 POP JUMP JUMPDEST PUSH0 DUP3 DUP3 MSTORE PUSH1 0x20 DUP3 ADD SWAP1 POP SWAP3 SWAP2 POP POP JUMP JUMPDEST PUSH0 JUMPDEST DUP4 DUP2 LT ISZERO PUSH2 0x682 JUMPI DUP1 DUP3 ADD MLOAD DUP2 DUP5 ADD MSTORE PUSH1 0x20 DUP2 ADD SWAP1 POP PUSH2 0x667 JUMP JUMPDEST PUSH0 DUP5 DUP5 ADD MSTORE POP POP POP POP JUMP JUMPDEST PUSH0 PUSH1 0x1F NOT PUSH1 0x1F DUP4 ADD AND SWAP1 POP SWAP2 SWAP1 POP JUMP JUMPDEST PUSH0 PUSH2 0x6A7 DUP3 PUSH2 0x64B JUMP JUMPDEST PUSH2 0x6B1 DUP2 DUP6 PUSH2 0x655 JUMP JUMPDEST SWAP4 POP PUSH2 0x6C1 DUP2 DUP6 PUSH1 0x20 DUP7 ADD PUSH2 0x665 JUMP JUMPDEST PUSH2 0x6CA DUP2 PUSH2 0x68D JUMP JUMPDEST DUP5 ADD SWAP2 POP POP SWAP3 SWAP2 POP POP JUMP JUMPDEST PUSH0 PUSH1 0x60 DUP3 ADD SWAP1 POP DUP2 DUP2 SUB PUSH0 DUP4 ADD MSTORE PUSH2 0x6ED DUP2 DUP7 PUSH2 0x69D JUMP JUMPDEST SWAP1 POP DUP2 DUP2 SUB PUSH1 0x20 DUP4 ADD MSTORE PUSH2 0x701 DUP2 DUP6 PUSH2 0x69D JUMP JUMPDEST SWAP1 POP DUP2 DUP2 SUB PUSH1 0x40 DUP4 ADD MSTORE PUSH2 0x715 DUP2 DUP5 PUSH2 0x69D JUMP JUMPDEST SWAP1 POP SWAP5 SWAP4 POP POP POP POP JUMP JUMPDEST PUSH0 DUP1 REVERT JUMPDEST PUSH0 DUP1 REVERT JUMPDEST PUSH32 0x4E487B7100000000000000000000000000000000000000000000000000000000 PUSH0 MSTORE PUSH1 0x41 PUSH1 0x4 MSTORE PUSH1 0x24 PUSH0 REVERT JUMPDEST PUSH2 0x75D DUP3 PUSH2 0x68D JUMP JUMPDEST DUP2 ADD DUP2 DUP2 LT PUSH8 0xFFFFFFFFFFFFFFFF DUP3 GT OR ISZERO PUSH2 0x77C JUMPI PUSH2 0x77B PUSH2 0x727 JUMP JUMPDEST JUMPDEST DUP1 PUSH1 0x40 MSTORE POP POP POP JUMP JUMPDEST PUSH0 PUSH2 0x78E PUSH2 0x5DC JUMP JUMPDEST SWAP1 POP PUSH2 0x79A DUP3 DUP3 PUSH2 0x754 JUMP JUMPDEST SWAP2 SWAP1 POP JUMP JUMPDEST PUSH0 PUSH8 0xFFFFFFFFFFFFFFFF DUP3 GT ISZERO PUSH2 0x7B9 JUMPI PUSH2 0x7B8 PUSH2 0x727 JUMP JUMPDEST JUMPDEST PUSH2 0x7C2 DUP3 PUSH2 0x68D JUMP JUMPDEST SWAP1 POP PUSH1 0x20 DUP2 ADD SWAP1 POP SWAP2 SWAP1 POP JUMP JUMPDEST DUP3 DUP2 DUP4 CALLDATACOPY PUSH0 DUP4 DUP4 ADD MSTORE POP POP POP JUMP JUMPDEST PUSH0 PUSH2 0x7EF PUSH2 0x7EA DUP5 PUSH2 0x79F JUMP JUMPDEST PUSH2 0x785 JUMP JUMPDEST SWAP1 POP DUP3 DUP2 MSTORE PUSH1 0x20 DUP2 ADD DUP5 DUP5 DUP5 ADD GT ISZERO PUSH2 0x80B JUMPI PUSH2 0x80A PUSH2 0x723 JUMP JUMPDEST JUMPDEST PUSH2 0x816 DUP5 DUP3 DUP6 PUSH2 0x7CF JUMP JUMPDEST POP SWAP4 SWAP3 POP POP POP JUMP JUMPDEST PUSH0 DUP3 PUSH1 0x1F DUP4 ADD SLT PUSH2 0x832 JUMPI PUSH2 0x831 PUSH2 0x71F JUMP JUMPDEST JUMPDEST DUP2 CALLDATALOAD PUSH2 0x842 DUP5 DUP3 PUSH1 0x20 DUP7 ADD PUSH2 0x7DD JUMP JUMPDEST SWAP2 POP POP SWAP3 SWAP2 POP POP JUMP JUMPDEST PUSH0 DUP1 PUSH0 PUSH1 0x60 DUP5 DUP7 SUB SLT ISZERO PUSH2 0x862 JUMPI PUSH2 0x861 PUSH2 0x5E5 JUMP JUMPDEST JUMPDEST PUSH0 DUP5 ADD CALLDATALOAD PUSH8 0xFFFFFFFFFFFFFFFF DUP2 GT ISZERO PUSH2 0x87F JUMPI PUSH2 0x87E PUSH2 0x5E9 JUMP JUMPDEST JUMPDEST PUSH2 0x88B DUP7 DUP3 DUP8 ADD PUSH2 0x81E JUMP JUMPDEST SWAP4 POP POP PUSH1 0x20 DUP5 ADD CALLDATALOAD PUSH8 0xFFFFFFFFFFFFFFFF DUP2 GT ISZERO PUSH2 0x8AC JUMPI PUSH2 0x8AB PUSH2 0x5E9 JUMP JUMPDEST JUMPDEST PUSH2 0x8B8 DUP7 DUP3 DUP8 ADD PUSH2 0x81E JUMP JUMPDEST SWAP3 POP POP PUSH1 0x40 DUP5 ADD CALLDATALOAD PUSH8 0xFFFFFFFFFFFFFFFF DUP2 GT ISZERO PUSH2 0x8D9 JUMPI PUSH2 0x8D8 PUSH2 0x5E9 JUMP JUMPDEST JUMPDEST PUSH2 0x8E5 DUP7 DUP3 DUP8 ADD PUSH2 0x81E JUMP JUMPDEST SWAP2 POP POP SWAP3 POP SWAP3 POP SWAP3 JUMP JUMPDEST PUSH0 PUSH20 0xFFFFFFFFFFFFFFFFFFFFFFFFFFFFFFFFFFFFFFFF DUP3 AND SWAP1 POP SWAP2 SWAP1 POP JUMP JUMPDEST PUSH0 PUSH2 0x918 DUP3 PUSH2 0x8EF JUMP JUMPDEST SWAP1 POP SWAP2 SWAP1 POP JUMP JUMPDEST PUSH2 0x928 DUP2 PUSH2 0x90E JUMP JUMPDEST DUP3 MSTORE POP POP JUMP JUMPDEST PUSH0 PUSH1 0x20 DUP3 ADD SWAP1 POP PUSH2 0x941 PUSH0 DUP4 ADD DUP5 PUSH2 0x91F JUMP JUMPDEST SWAP3 SWAP2 POP POP JUMP JUMPDEST PUSH0 DUP2 SWAP1 POP SWAP2 SWAP1 POP JUMP JUMPDEST PUSH2 0x959 DUP2 PUSH2 0x947 JUMP JUMPDEST DUP3 MSTORE POP POP JUMP JUMPDEST PUSH0 PUSH1 0x20 DUP3 ADD SWAP1 POP PUSH2 0x972 PUSH0 DUP4 ADD DUP5 PUSH2 0x950 JUMP JUMPDEST SWAP3 SWAP2 POP POP JUMP JUMPDEST PUSH2 0x981 DUP2 PUSH2 0x90E JUMP JUMPDEST DUP2 EQ PUSH2 0x98B JUMPI PUSH0 DUP1 REVERT JUMPDEST POP JUMP JUMPDEST PUSH0 DUP2 CALLDATALOAD SWAP1 POP PUSH2 0x99C DUP2 PUSH2 0x978 JUMP JUMPDEST SWAP3 SWAP2 POP POP JUMP JUMPDEST PUSH0 PUSH1 0x20 DUP3 DUP5 SUB SLT ISZERO PUSH2 0x9B7 JUMPI PUSH2 0x9B6 PUSH2 0x5E5 JUMP JUMPDEST JUMPDEST PUSH0 PUSH2 0x9C4 DUP5 DUP3 DUP6 ADD PUSH2 0x98E JUMP JUMPDEST SWAP2 POP POP SWAP3 SWAP2 POP POP JUMP JUMPDEST PUSH32 0x4E487B7100000000000000000000000000000000000000000000000000000000 PUSH0 MSTORE PUSH1 0x22 PUSH1 0x4 MSTORE PUSH1 0x24 PUSH0 REVERT JUMPDEST PUSH0 PUSH1 0x2 DUP3 DIV SWAP1 POP PUSH1 0x1 DUP3 AND DUP1 PUSH2 0xA11 JUMPI PUSH1 0x7F DUP3 AND SWAP2 POP JUMPDEST PUSH1 0x20 DUP3 LT DUP2 SUB PUSH2 0xA24 JUMPI PUSH2 0xA23 PUSH2 0x9CD JUMP JUMPDEST JUMPDEST POP SWAP2 SWAP1 POP JUMP JUMPDEST PUSH0 DUP2 SWAP1 POP SWAP3 SWAP2 POP POP JUMP JUMPDEST PUSH0 PUSH2 0xA3E DUP3 PUSH2 0x64B JUMP JUMPDEST PUSH2 0xA48 DUP2 DUP6 PUSH2 0xA2A JUMP JUMPDEST SWAP4 POP PUSH2 0xA58 DUP2 DUP6 PUSH1 0x20 DUP7 ADD PUSH2 0x665 JUMP JUMPDEST DUP1 DUP5 ADD SWAP2 POP POP SWAP3 SWAP2 POP POP JUMP JUMPDEST PUSH0 PUSH2 0xA6F DUP3 DUP7 PUSH2 0xA34 JUMP JUMPDEST SWAP2 POP PUSH2 0xA7B DUP3 DUP6 PUSH2 0xA34 JUMP JUMPDEST SWAP2 POP PUSH2 0xA87 DUP3 DUP5 PUSH2 0xA34 JUMP JUMPDEST SWAP2 POP DUP2 SWAP1 POP SWAP5 SWAP4 POP POP POP POP JUMP JUMPDEST PUSH0 DUP2 SWAP1 POP DUP2 PUSH0 MSTORE PUSH1 0x20 PUSH0 KECCAK256 SWAP1 POP SWAP2 SWAP1 POP JUMP JUMPDEST PUSH0 PUSH1 0x20 PUSH1 0x1F DUP4 ADD DIV SWAP1 POP SWAP2 SWAP1 POP JUMP JUMPDEST PUSH0 DUP3 DUP3 SHL SWAP1 POP SWAP3 SWAP2 POP POP JUMP JUMPDEST PUSH0 PUSH1 0x8 DUP4 MUL PUSH2 0xAF0 PUSH32 0xFFFFFFFFFFFFFFFFFFFFFFFFFFFFFFFFFFFFFFFFFFFFFFFFFFFFFFFFFFFFFFFF DUP3 PUSH2 0xAB5 JUMP JUMPDEST PUSH2 0xAFA DUP7 DUP4 PUSH2 0xAB5 JUMP JUMPDEST SWAP6 POP DUP1 NOT DUP5 AND SWAP4 POP DUP1 DUP7 AND DUP5 OR SWAP3 POP POP POP SWAP4 SWAP3 POP POP POP JUMP JUMPDEST PUSH0 DUP2 SWAP1 POP SWAP2 SWAP1 POP JUMP JUMPDEST PUSH0 PUSH2 0xB35 PUSH2 0xB30 PUSH2 0xB2B DUP5 PUSH2 0x947 JUMP JUMPDEST PUSH2 0xB12 JUMP JUMPDEST PUSH2 0x947 JUMP JUMPDEST SWAP1 POP SWAP2 SWAP1 POP JUMP JUMPDEST PUSH0 DUP2 SWAP1 POP SWAP2 SWAP1 POP JUMP JUMPDEST PUSH2 0xB4E DUP4 PUSH2 0xB1B JUMP JUMPDEST PUSH2 0xB62 PUSH2 0xB5A DUP3 PUSH2 0xB3C JUMP JUMPDEST DUP5 DUP5 SLOAD PUSH2 0xAC1 JUMP JUMPDEST DUP3 SSTORE POP POP POP POP JUMP JUMPDEST PUSH0 SWAP1 JUMP JUMPDEST PUSH2 0xB76 PUSH2 0xB6A JUMP JUMPDEST PUSH2 0xB81 DUP2 DUP5 DUP5 PUSH2 0xB45 JUMP JUMPDEST POP POP POP JUMP JUMPDEST JUMPDEST DUP2 DUP2 LT ISZERO PUSH2 0xBA4 JUMPI PUSH2 0xB99 PUSH0 DUP3 PUSH2 0xB6E JUMP JUMPDEST PUSH1 0x1 DUP2 ADD SWAP1 POP PUSH2 0xB87 JUMP JUMPDEST POP POP JUMP JUMPDEST PUSH1 0x1F DUP3 GT ISZERO PUSH2 0xBE9 JUMPI PUSH2 0xBBA DUP2 PUSH2 0xA94 JUMP JUMPDEST PUSH2 0xBC3 DUP5 PUSH2 0xAA6 JUMP JUMPDEST DUP2 ADD PUSH1 0x20 DUP6 LT ISZERO PUSH2 0xBD2 JUMPI DUP2 SWAP1 POP JUMPDEST PUSH2 0xBE6 PUSH2 0xBDE DUP6 PUSH2 0xAA6 JUMP JUMPDEST DUP4 ADD DUP3 PUSH2 0xB86 JUMP JUMPDEST POP POP JUMPDEST POP POP POP JUMP JUMPDEST PUSH0 DUP3 DUP3 SHR SWAP1 POP SWAP3 SWAP2 POP POP JUMP JUMPDEST PUSH0 PUSH2 0xC09 PUSH0 NOT DUP5 PUSH1 0x8 MUL PUSH2 0xBEE JUMP JUMPDEST NOT DUP1 DUP4 AND SWAP2 POP POP SWAP3 SWAP2 POP POP JUMP JUMPDEST PUSH0 PUSH2 0xC21 DUP4 DUP4 PUSH2 0xBFA JUMP JUMPDEST SWAP2 POP DUP3 PUSH1 0x2 MUL DUP3 OR SWAP1 POP SWAP3 SWAP2 POP POP JUMP JUMPDEST PUSH2 0xC3A DUP3 PUSH2 0x64B JUMP JUMPDEST PUSH8 0xFFFFFFFFFFFFFFFF DUP2 GT ISZERO PUSH2 0xC53 JUMPI PUSH2 0xC52 PUSH2 0x727 JUMP JUMPDEST JUMPDEST PUSH2 0xC5D DUP3 SLOAD PUSH2 0x9FA JUMP JUMPDEST PUSH2 0xC68 DUP3 DUP3 DUP6 PUSH2 0xBA8 JUMP JUMPDEST PUSH0 PUSH1 0x20 SWAP1 POP PUSH1 0x1F DUP4 GT PUSH1 0x1 DUP2 EQ PUSH2 0xC99 JUMPI PUSH0 DUP5 ISZERO PUSH2 0xC87 JUMPI DUP3 DUP8 ADD MLOAD SWAP1 POP JUMPDEST PUSH2 0xC91 DUP6 DUP3 PUSH2 0xC16 JUMP JUMPDEST DUP7 SSTORE POP PUSH2 0xCF8 JUMP JUMPDEST PUSH1 0x1F NOT DUP5 AND PUSH2 0xCA7 DUP7 PUSH2 0xA94 JUMP JUMPDEST PUSH0 JUMPDEST DUP3 DUP2 LT ISZERO PUSH2 0xCCE JUMPI DUP5 DUP10 ADD MLOAD DUP3 SSTORE PUSH1 0x1 DUP3 ADD SWAP2 POP PUSH1 0x20 DUP6 ADD SWAP5 POP PUSH1 0x20 DUP2 ADD SWAP1 POP PUSH2 0xCA9 JUMP JUMPDEST DUP7 DUP4 LT ISZERO PUSH2 0xCEB JUMPI DUP5 DUP10 ADD MLOAD PUSH2 0xCE7 PUSH1 0x1F DUP10 AND DUP3 PUSH2 0xBFA JUMP JUMPDEST DUP4 SSTORE POP JUMPDEST PUSH1 0x1 PUSH1 0x2 DUP9 MUL ADD DUP9 SSTORE POP POP POP JUMPDEST POP POP POP POP POP POP JUMP JUMPDEST PUSH32 0x4E487B7100000000000000000000000000000000000000000000000000000000 PUSH0 MSTORE PUSH1 0x11 PUSH1 0x4 MSTORE PUSH1 0x24 PUSH0 REVERT JUMPDEST PUSH0 PUSH2 0xD37 DUP3 PUSH2 0x947 JUMP JUMPDEST SWAP2 POP PUSH32 0xFFFFFFFFFFFFFFFFFFFFFFFFFFFFFFFFFFFFFFFFFFFFFFFFFFFFFFFFFFFFFFFF DUP3 SUB PUSH2 0xD69 JUMPI PUSH2 0xD68 PUSH2 0xD00 JUMP JUMPDEST JUMPDEST PUSH1 0x1 DUP3 ADD SWAP1 POP SWAP2 SWAP1 POP JUMP INVALID LOG2 PUSH5 0x6970667358 0x22 SLT KECCAK256 CALLVALUE LT 0x2B EQ 0xBE SELFDESTRUCT PUSH4 0xBA995A9 SAR 0xC0 0xC0 0x29 NOT SWAP12 PUSH2 0x6544 0x2E 0x27 0xB6 0xCF 0xE1 SAR DUP12 DUP14 0xB1 DUP16 0xDE SHL PUSH5 0x736F6C6343 STOP ADDMOD EQ STOP CALLER "},"gasEstimates":{"creation":{"codeDepositCost":"699600","executionCost":"infinite","totalCost":"infinite"},"external":{"createDocument(string,string,string)":"infinite","documentCount()":"2491","documents(bytes32)":"infinite","owner()":"2559","renounceOwnership()":"infinite","transferOwnership(address)":"infinite"}},"methodIdentifiers":{"createDocument(string,string,string)":"5ec43825","documentCount()":"a5b16b2e","documents(bytes32)":"2b2805db","owner()":"8da5cb5b","renounceOwnership()":"715018a6","transferOwnership(address)":"f2fde38b"}},"storageLayout":{"storage":[{"astId":108,"contract":"DocumentFactory.sol:DocumentFactory","label":"_owner","offset":0,"slot":"0","type":"t_address"},{"astId":29,"contract":"DocumentFactory.sol:DocumentFactory","label":"documentCount","offset":0,"slot":"1","type":"t_uint256"},{"astId":49,"contract":"DocumentFactory.sol:DocumentFactory","label":"documents","offset":0,"slot":"2","type":"t_mapping(t_bytes32,t_struct(Document)36_storage)"}],"types":{"t_address":{"encoding":"inplace","label":"address","numberOfBytes":"20"},"t_bytes32":{"encoding":"inplace","label":"bytes32","numberOfBytes":"32"},"t_mapping(t_bytes32,t_struct(Document)36_storage)":{"encoding":"mapping","key":"t_bytes32","label":"mapping(bytes32 => struct DocumentFactory.Document)","numberOfBytes":"32","value":"t_struct(Document)36_storage"},"t_string_storage":{"encoding":"bytes","label":"string","numberOfBytes":"32"},"t_struct(Document)36_storage":{"encoding":"inplace","label":"struct DocumentFactory.Document","members":[{"astId":31,"contract":"DocumentFactory.sol:DocumentFactory","label":"ipfs_hash","offset":0,"slot":"0","type":"t_string_storage"},{"astId":33,"contract":"DocumentFactory.sol:DocumentFactory","label":"sha256_hash","offset":0,"slot":"1","type":"t_string_storage"},{"astId":35,"contract":"DocumentFactory.sol:DocumentFactory","label":"creator","offset":0,"slot":"2","type":"t_string_storage"}],"numberOfBytes":"96"},"t_uint256":{"encoding":"inplace","label":"uint256","numberOfBytes":"32"}}},"userdoc":{"kind":"user","methods":{},"version":1}}